:020000040000FA
:10000000A006002045010000B1020000AF02000080
:1000100000000000000000000000000000000000E0
:1000200000000000000000000000000001030000CC
:100030000000000000000000B30200000303000005
:10004000000000005D0100005D0100005D01000096
:100050005D0100005D0100005D0100000000000086
:1000600000000000000000005D0100005D010000D4
:100070005D0100005D0100005D0100000000000066
:10008000000000005D0100005D0100005D01000056
:1000900000000000000000005D0100005D010000A4
:1000A0005D0100005D0100005D0100005D010000D8
:1000B0005D0100005D0100005D01000000F002F83C
:1000C00000F030F80CA030C8083824182D18671E2E
:1000D000A246AB4654465D46AC4201D100F022F840
:1000E0007E460F3EB6460FCC0126334200D0FB1AA7
:1000F0003343A246AB4618472406000034060000EE
:100100000023002400250026103A01D378C1FBD833
:10011000520700D330C100D50B6070471FB51FBD1B
:1001200010B510BD00F033F81146FFF7F7FF00F0EF
:100130009DF900F04BF803B4FFF7F2FF03BC00F0A9
:1001400051F80000094880F30888094880470948A9
:100150000047FEE7FEE7FEE7FEE7FEE7FEE70000FA
:1001600005480649064A074B70470000A0060020D4
:1001700005030000BD000000A0000020A006002034
:10018000A0020020A002002070477047704775460B
:1001900000F024F8AE46050069465346C008C0008A
:1001A000854618B020B5FFF7DBFF60BCB6460026D9
:1001B0000027C0C5C0C5C0C5C0C5C0C5C0C5C0C575
:1001C000C0C5403D490849008D46704710B50446FA
:1001D000C046C0462046FFF7AEFF10BD004870473E
:1001E0000000002001491820ABBEFEE726000200F7
:1001F0007047000080B582B011210A0101A90A8070
:10020000C000094A13181B79CB70105800F012F87F
:1002100002B080BD80B5C100034A50585118097919
:1002200000F004F880BDC0460C07000002688A4355
:1002300002607047F0B584B0C468036900908068BC
:100240000390C87802900026019103E03C43761C9D
:10025000082E21D001200746B740029A1742F6D057
:100260000D78102219462A4002D0039B3B4301E03F
:10027000039BBB4303930B46002A00D10220019944
:10028000085C002803D03B43E807DFD102E0BB4312
:10029000E807DBD1BC43DAE70098C4600361039947
:1002A000816004B0F0BD02684A4002607047704748
:1002B00070477047B0B52E4D28460C380068C0B264
:1002C000B42811D0D22811D0E12812D12868C00654
:1002D000800F0A4CC4400321204600F01BF9296816
:1002E000890607D52046B0BD0348B0BD7D208002F9
:1002F000B0BD0020B0BDC0460024F400006CDC029C
:1003000070477047B0B51A480146183901220A6093
:100310000246143A002111600246083AE1231360B4
:10032000021F116018220260FF22426002614262D5
:100330008160C160C268D207FCD1C16081610D4B90
:100340001C68102214431C600724E4431D682540E8
:100350001D60036820251D4305600368234003607A
:10036000036808241C439443046003480160B0BD43
:10037000180001400010014008ED00E0F0B581B028
:100380000D4604466048844205D00120E0623049B1
:100390008C4200D10863206916218843297BAA7BFF
:1003A0000A4302432261A06930218843697B0143EB
:1003B000A16160690C218843297901436161FFF7DC
:1003C00079FF0A267043296800F0A4F807463146F1
:1003D00000F0A0F84643B91B042900D9401C0F21A6
:1003E00002460A40E3688B43D218E260020AF02317
:1003F0001A40E6689E439219E2600009C0B2A26802
:10040000FF239A431018A0602069FE220240226157
:10041000606908406061E069BF210140E161A8684E
:10042000C1B2002902D022690A4322610104090EE7
:1004300004D06169020AD2B20A4362610102090E64
:1004400004D0E169000CC0B20843E06101B0F0BD26
:1004500000480040016920229143016170474268D1
:10046000FF239A43511841607047000086B0244929
:100470000020086048608860C86008614861886141
:10048000C86120490246603A0A54401C2028F9D12C
:1004900000242046FFF7AEFE01252846FFF7AAFEFE
:1004A0002046FFF7B7FE2846FFF7B4FE02A98C816D
:1004B0008C730820087104944B20C0010290124CE8
:1004C0002046FFF75BFF2046FFF7C4FF01A920206D
:1004D000C870FF20123008800C4D2846FFF7AAFE96
:1004E0000B4E02960298411E02910028FAD120215B
:1004F0002846FFF7D8FE31212046FFF7B0FFF0E78E
:10050000600000208000002000340040000800400F
:10051000FFFF070043088B421AD3002203098B42D6
:1005200079D3030A8B425ED3030B8B4242D3030C75
:100530008B4227D30902FF2212BA030C8B4202D34B
:100540001212090203D0030B8B4233D31AE0D3E01B
:10055000411A8041401C704703460B4371D4430845
:100560008B42F5D3002203098B4254D3030A8B42FA
:1005700039D3030B8B421DD3030C8B4202D3944619
:100580006EE0090AC30B8B4201D3CB03C01A524160
:10059000830B8B4201D38B03C01A5241430B8B4216
:1005A00001D34B03C01A5241030B8B4201D30B03FF
:1005B000C01A5241C30A8B4201D3CB02C01A524126
:1005C000830A8B4201D38B02C01A5241430A8B42E9
:1005D00001D34B02C01A5241030A8B4201D30B02D2
:1005E000C01A5241CDD2C3098B4201D3CB01C01AEC
:1005F000524183098B4201D38B01C01A52414309F6
:100600008B4201D34B01C01A524103098B4201D3E3
:100610000B01C01A5241C3088B4201D3CB00C01A50
:10062000524183088B4201D38B00C01A52414308C8
:100630008B4201D34B00C01A5241411A5241100063
:100640007047CA0F00D04942031000D340425340C4
:1006500000229C4603098B422DD3030A8B4212D3FE
:100660008901FC2212BA030A8B420CD38901921130
:100670008B4208D3890192118B4204D3890137D070
:10068000921100E08909C3098B4201D3CB01C01A42
:10069000524183098B4201D38B01C01A5241430955
:1006A0008B4201D34B01C01A524103098B4201D343
:1006B0000B01C01A5241C3088B4201D3CB00C01AB0
:1006C000524183088B4201D38B00C01A5241D9D2C8
:1006D00043088B4201D34B00C01A5241411A00D249
:1006E00001465241104663465B1000D340427047BA
:1006F00063465B1000D3404201B50021004201D0A7
:10070000C9430846C046C04602BD0000000800407C
:100710002000000000080040200000002C0700001E
:0C07200000000020A00600000001000006
:04000005000000BD3A
:00000001FF
