:020000040000FA
:1000000060060020450100007F0200007D02000024
:1000100000000000000000000000000000000000E0
:10002000000000000000000000000000830200004B
:1000300000000000000000008102000085020000B6
:10004000000000005D0100005D0100005D01000096
:100050005D0100005D0100005D0100000000000086
:1000600000000000000000005D0100005D010000D4
:100070005D0100005D0100005D0100000000000066
:10008000000000005D0100005D0100005D01000056
:1000900000000000000000005D0100005D010000A4
:1000A0005D0100005D0100005D0100005D010000D8
:1000B0005D0100005D0100005D01000000F002F83C
:1000C00000F030F80CA030C8083824182D18671E2E
:1000D000A246AB4654465D46AC4201D100F022F840
:1000E0007E460F3EB6460FCC0126334200D0FB1AA7
:1000F0003343A246AB4618476C0200007C02000066
:100100000023002400250026103A01D378C1FBD833
:10011000520700D330C100D50B6070471FB51FBD1B
:1001200010B510BD00F033F81146FFF7F7FF00F0EF
:10013000E7F800F04BF803B4FFF7F2FF03BC00F060
:1001400051F80000094880F30888094880470948A9
:100150000047FEE7FEE7FEE7FEE7FEE7FEE70000FA
:1001600005480649064A074B704700006006002014
:1001700089020000BD000000600000206006002031
:10018000600200206002002070477047704775468B
:1001900000F024F8AE46050069465346C008C0008A
:1001A000854618B020B5FFF7DBFF60BCB6460026D9
:1001B0000027C0C5C0C5C0C5C0C5C0C5C0C5C0C575
:1001C000C0C5403D490849008D46704710B50446FA
:1001D000C046C0462046FFF7AEFF10BD004870473E
:1001E0000000002001491820ABBEFEE726000200F7
:1001F000704702688A4302607047F0B584B0C468F3
:100200000369009080680390C878029000260191ED
:1002100003E03C43761C082E21D001200746B7405E
:10022000029A1742F6D00D78102219462A4002D0C1
:10023000039B3B4301E0039BBB4303930B46002A14
:1002400000D102200199085C002803D03B43E80755
:10025000DFD102E0BB43E807DBD1BC43DAE700981B
:10026000C46003610399816004B0F0BD02680A4371
:100270000260704702684A400260704770477047EA
:100280007047704770470000B0B51A4801461839EA
:1002900001220A600246143A002111600246083A1F
:1002A000E1231360021F116018220260FF224260E6
:1002B000026142628160C160C268D207FCD1C16044
:1002C00081610D4B1C68102214431C600724E44319
:1002D0001D6825401D60036820251D4305600368D7
:1002E00023400360036808241C43944304600348CC
:1002F0000160B0BD180001400010014008ED00E0B1
:1003000082B06F462026FE70FF2012303880124CDB
:1003100020463946FFF771FFFE70104D28463946DA
:10032000FFF76BFF20463146FFF763FF2846314653
:10033000FFF79CFF0A4F01970198411E0191002889
:10034000FAD1202628463146FFF794FF2046314651
:10035000FFF790FFEFE7C046000C004000080040A8
:10036000F5FF0F007403000000000020600600008D
:040370000001000088
:04000005000000BD3A
:00000001FF
