:020000040000FA
:10000000D0060020610100001D0D0000550C00000D
:1000100000000000000000000000000000000000E0
:10002000000000000000000000000000C50E0000FD
:100030000000000000000000890D000055100000C5
:10004000000000007901000079010000890700002C
:10005000C90800000109000079010000000000004B
:10006000000000000000000079010000790100009C
:100070007901000079010000790100000000000012
:100080000000000079010000790100007901000002
:100090000000000000000000790100008914000049
:1000A0007901000079010000790100007901000068
:1000B00079010000790100007901000000F002F8E8
:1000C00000F03EF80CA030C8083824182D18671E20
:1000D000A246AB4654465D46AC4201D100F030F832
:1000E0007E460F3EB6460FCC0126334200D0FB1AA7
:1000F0003343A246AB461847E4250000042600001F
:10010000103A02D378C878C1FAD8520701D330C860
:1001100030C101D504680C60704700000023002442
:1001200000250026103A01D378C1FBD8520700D32E
:1001300030C100D50B6070471FB51FBD10B510BD95
:1001400000F038F81146FFF7F7FF01F025FD00F049
:1001500050F803B4FFF7F2FF03BC00F053F80000BF
:10016000094880F308880948804709480047FEE7A6
:10017000FEE7FEE7FEE7FEE7FEE70000054806496A
:10018000064A074B70470000D006002059100000B7
:10019000BD000000D0000020D0060020D0020020CA
:1001A000D002002070477047704700000048704739
:1001B000080000207546FFF7F9FFAE4605006946C6
:1001C0005346C008C000854618B020B5FFF7D6FFDB
:1001D00060BCB64600260027C0C5C0C5C0C5C0C5A6
:1001E000C0C5C0C5C0C5C0C5403D490849008D4611
:1001F000704710B50446C046C0462046FFF7A9FF29
:1002000010BD000001491820ABBEFEE72600020029
:100210007047B0B50025284600F000F900F0A8F8B6
:100220000320C401204600F01FF800F09BF800F006
:10023000FDF8204600F0D6F80028FAD0204600F05D
:1002400013F8681C092D0546F1D300F07FF800F083
:10025000AFF8404240B200F0E1F800F07DF82046EF
:1002600000F002F8B0BD0000FF21CA43C1431143B2
:10027000C005634803D4C2680A40C2607047026880
:100280000A4002607047C046F0B52B490B1F1A6840
:100290000124A2431A6002781C687025AC435207FF
:1002A000520EA2181A6084791D6802229543E40751
:1002B000A40F2C191C60037A0C680825AC43DB07DB
:1002C0001B0FE3180B6084780D6830239D43E4070F
:1002D000E40E2C190C608478A40040252C400E6894
:1002E000AE4334190C60858800242E46E640F6079C
:1002F00003D1641C092CF8D109240D6815430D6045
:100300000F2634400D46083D2F68B7433C192C603A
:10031000D2430C6814400C60C4790E681640E207A2
:10032000920FB2180A6029689943296040782968B9
:1003300001432960F0BDC04688440040012101729C
:10034000818000218170C180018070473A48016836
:1003500001229143016070472F48016801229143B7
:10036000016070473448016801220A430260704707
:100370002948016801220A430260704780B582B0B3
:1003800001A900220A708A70082805D0202805D00B
:10039000102809D1082002E0042000E0202001A953
:1003A000C870024800F018FC02B080BD000C00408C
:1003B0000F2108020A4A1346083B1B681B0707D493
:1003C000136852680A40F0301901014088187047DC
:1003D0005168126812020240C8B210187047C04635
:1003E00090440040C105064902D4C968014002E0BA
:1003F00009680840C1B2C8B2411E88417047C04672
:100400008044004004490A6804239A43C007400F0F
:10041000101808607047C046C04400403F210140AA
:10042000014801607047C046C4440040024801686A
:1004300001220A43026070478444004070B584B0D2
:10044000044600252846FFF7DDFF01AE3046FFF7E2
:1004500075FF0120B071B48075703046FFF714FF4E
:10046000FFF7D7FEFFF77EFFFFF7E0FF0320C40191
:100470002046FFF7B7FF0028FAD02046FFF7F4FE2A
:10048000FFF796FF04B070BDF0B581B04F4D2878EE
:10049000800705D54E48002101704E4801210170AA
:1004A0004C4C20784A4E317801430CD10120207009
:1004B000307049480321017001F06CFA474802216D
:1004C000017047480170464F3878052801D3042051
:1004D000387044480078317800290DD12278012AFB
:1004E0000AD121280FD022284DD1404800886988A0
:1004F00081422DD900222CE0212844D1002942D16B
:10050000002030703DE03448052101703878431CEC
:100510003B707D20C0006A880121002482420A4687
:1005200000D82246DBB2042B00D821460A43012A18
:1005300002D1042139706880002030700120254CE0
:100540002070397825480170274800F0BDFC1AE07A
:10055000012239784B424B411343012B03D1002137
:100560003970688009E01C4804220270481E387007
:10057000C1B21FA000F0A8FC3978002030701748E5
:100580000170012020702878402101F03BF828708C
:10059000082101F037F828703078002810D1207831
:1005A00002280DD12046002404703C7001203070D8
:1005B0006C80204600F0C2FA614804807C717C7037
:1005C00000200849087001B0F0BDC0468C00002032
:1005D000900000206D000020C8000020980000203E
:1005E0009200002078000020CD260000A426000004
:1005F00020446F776E2050535F7374657000000065
:10060000F0B581B04A4D6979012943D14C4E31880A
:100610004CA000F059FC4E480088318881424BD9EB
:10062000444F00247C80204601F00AF938780225E6
:10063000294600F0E5FF3870402100F0E1FF3870F6
:100640004848047048480470394844713480447004
:1006500003460126B0070168F7220A4002607C8049
:100660001C703878294600F0CBFF387001F0DAF9B9
:100670003878314600F0C6FF387037480460798812
:100680003AA000F021FC324801883BA000F01CFC9D
:1006900001B0F0BD274C207800F0B2FF2070C007F9
:1006A00025480278254801683CD0002A3AD120220A
:1006B0001143016001B0F0BD264827490A68274B65
:1006C0009A420CD30278012A09D100220A600270F2
:1006D000234B1A80194A136820241C4314600A68AB
:1006E0005208A72A21D30278002A1ED100220A60CC
:1006F00012490A68202353400B60194A13886C780A
:10070000032C01D8A34203D26400641E9C4205DC82
:10071000012404700868DF2404400C60581C108019
:1007200001B0F0BDDF221140016001B0F0BDC04654
:10073000920000208C00002086000020000800406D
:1007400084000020736875742074696D6500000072
:100750007E000020AD00002074000020D1070000C2
:10076000AE0000206D0000209000002066616E2E1B
:10077000537065656400000054696D6572566C6164
:1007800075654D696C697300F0B583B04348417875
:10079000C907434921D14278D20710D100220A600B
:1007A000444909230B703F490A7041490A70C280CD
:1007B000828042800270417801220A434270002404
:1007C000204600F0B1F83E480178012903D13D49A7
:1007D00001220A70047003B0F0BD0B68C4880022C7
:1007E0000A60C280E518ED235C002E4B1F78012FB4
:1007F00043D12D4EAF19BFB2A7421CD22B4E366843
:10080000B60705D42A4E3678002E04D1022603E01E
:10081000A7420CD30FE004260196865B0296254E74
:1008200037780126BE40029F3E43019FC653214EAA
:1008300037787F1E3770204EAE19B6B21F4FBE42BA
:1008400007D81C4E0B273770194E012737701746F3
:1008500012E0184F3E78002E0FD1154E3678002E3C
:100860000BD01A70124E327009263E70467804275B
:10087000374347708688770887801E78012E8AD094
:10088000094EAD19ADB2A54285D2084C2468A40723
:1008900081D5074C227001221A707CE7B800002035
:1008A00018400040C0000020CCFB000004000040C5
:1008B000AC00002000000020FF82FFFF9E0F000020
:1008C000B0000020C400002080B50A48102100F0CC
:1008D000BCF9002806D008480121017007480170C2
:1008E00010480170642000F091FF012000F01CF816
:1008F00080BDC046000400406C0000207200002053
:1009000080B500F0B3FE06480178012904D10549FD
:1009100001220A7000210170022000F005F880BD5C
:100920007C000020910000200121814001480160ED
:100930007047C04608180040062838D8800001A239
:100940001058874661090000710900007F09000006
:100950008D090000AF090000AF0900009F090000E9
:1009600003200140124A13688343581810607047EF
:100970000F4802680C239A438907090F0CE00C48C2
:10098000026830239A438907890E05E00848026807
:10099000C0239A438907090E511801607047044823
:1009A000426804239A43C907490F511841607047B0
:1009B0000018004070B50146584A214C264635467D
:1009C000131F1868460707D4C60609D4461E70428E
:1009D0007041012807D009E00220012803D005E07A
:1009E0000320012802D16E1C002DE8D1002D00D17A
:1009F0000420002800D070BD106802252843106034
:100A00005160106840210143116021461C68600755
:100A1000284604D4E00605D4641E604260410128E3
:100A200003D005E00320012802D14C1C0029ECD1A1
:100A300013680224A34313600029DCD1042070BD95
:100A40000100F5FF3548016880220A4302607047C3
:100A5000F0B581B0314B324D2F463E461C1F226807
:100A6000570707D4D70609D4571E7A427A41012A7C
:100A700007D009E00222012A03D005E00322012A5F
:100A800002D1771C002EE8D1002E00D10422002ACA
:100A900040D11A680126009632431A6001802F4621
:100AA0003E462268570707D4D70609D4571E7A4214
:100AB0007A41012A07D009E00222012A03D005E089
:100AC0000322012A02D1771C002EE9D1002E00D189
:100AD0000422002A1AD1090C4180284621684A07BD
:100AE00007D4CA0609D4491E4A424A41012A07D0FE
:100AF00009E00222012A03D005E00322012A02D1E3
:100B0000451C0028E9D1002800D10422186800996A
:100B100088431860104601B0F0BDC0461010014077
:100B200001E0FFFF0248034901600349016070478B
:100B30000410014023016745AB89EFCDF0B581B0CA
:100B40002048007800282FD1B34E307881062BD56D
:100B5000202100F055FD307069460820C870FF2044
:100B60001230088001208407204600F035F8002567
:100B70007580284600F064FE1348057035701348F0
:100B80000570A74F7D71124805807D7004202946AD
:100B900000F030FC2068F721014021600A48057010
:100BA00035703D7000F018FC9B48007860210140D2
:100BB000402905D10024204600F042FE054804806B
:100BC00001B0F0BD9E0000206D00002090000020CC
:100BD00084000020C2000020F0B584B0C46803691E
:100BE000009080680390C87802900026019103E08D
:100BF0003C43761C082E21D001200746B740029ABC
:100C00001742F6D00D78102219462A4002D0039BD5
:100C10003B4301E0039BBB4303930B46002A00D1F7
:100C200002200199085C002803D03B43E807DFD18C
:100C300002E0BB43E807DBD1BC43DAE70098C460BD
:100C400003610399816004B0F0BD40680840411E13
:100C500088417047704700000548CC21016070470B
:100C600003485521016070470148AA21016070477F
:100C700000200040014908607047C0460420004041
:100C8000014908607047C04608200040F0B583B0B5
:100C900000F0D4F8009000F0ABFC01A9012008712D
:100CA0001C4801901C4D284600F022FA284600F00E
:100CB000EAFA0221284600F006FB0028F9D00121BB
:100CC000284600F0E5FA06460221284600F000FA20
:100CD0000221284600F0F7FA0028F9D0012728461B
:100CE000394600F0D5FA04460221284600F0F0F912
:100CF0002846394600F0A7FA284600F09FFAA41BC0
:100D000000F070FC0098C000214601F0CBFB03B05E
:100D1000F0BDC046010003010038004070470000EC
:100D200010B5002805D40322034693430E4A9A18AF
:100D300003E00C2202400B4BD2188307DB0E89071D
:100D4000090E9940FF249C401368A3430B43136092
:100D5000002805D41F21084001218140034801607B
:100D600010BDC04614ED00E000E400E000E100E04A
:100D70000448016804220A430260BFF34F8F30BF6A
:100D80007047C04610ED00E07047000010B52148E4
:100D900000210170204C20780921084238D00A2116
:100DA00008420DD1022100F02DFC20701B480121CA
:100DB000017000F0EFFD2078402100F023FC20704E
:100DC000174801784A1ED1B2032911D813490B786C
:100DD000012B00D102700278042A01D1521C02704A
:100DE00002220A700F490A78052A01D304220A70E8
:100DF0000178052904D3012101700848017010BD54
:100E0000491C084A11700170C9B207A000F05CF8D3
:100E100010BDC046780000208C000020C8000020D3
:100E20009200002098000020656C7365206B657946
:100E30002E50535F7374657020000000B0B5A14D53
:100E400028460C380068C0B2B42811D0D22811D07E
:100E5000E12812D12868C006800F0A4CC440032143
:100E6000204601F01FFB2968890607D52046B0BD42
:100E70000348B0BD7D208002B0BD0020B0BDC0469B
:100E80000024F400006CDC02F0B581B06E46012451
:100E900034700A4870800025032728463946FFF73A
:100EA0004BFDA0073146FFF797FE38462146FFF776
:100EB00037FF0348457001B0F0BDC0460102000095
:100EC000B800002070470000F0B583B00D4606461C
:100ED00000785F4C00280FD00027C1B2204600F0F8
:100EE0007AFB8021204600F062FB0028F9D07F1CAD
:100EF000F8B2305C0028F0D12021204600F06BFBD6
:100F00008021204600F053FB0028F9D001A80027DB
:100F100007710197002D0ED000270A26284631467A
:100F200001F0C0FA4643A91BBAB201AB99547F1C29
:100F30000A2D0546F1D2380411D0BDB26D1E01A8AC
:100F4000405D3030C1B2204600F045FB8021204694
:100F500000F02DFB0028F9D07F1E3804EED10A21C5
:100F6000204600F038FB8021204600F020FB0028BE
:100F7000F9D003B0F0BDC04610B584B06946002278
:100F80008A738A810C230B7102920090304C2046A8
:100F900000F09AFA204600F005FB04B010BDC046F0
:100FA00010B52B4C0A21204600F015FB802120466D
:100FB00000F0FDFA0028F9D010BDC04670B582B02F
:100FC00004466846002606710096002C0ED00026C6
:100FD0000A252046294601F065FA4543611BB2B255
:100FE0006B469954761C0A2C0446F1D2300414D076
:100FF000B5B2174C68462818401E00783030C1B290
:10100000204600F0E8FA8021204600F0D0FA0028BF
:10101000F9D06D1E761E3004ECD102B070BDC04612
:1010200070B504460078002810D00026084DC1B2E3
:10103000284600F0D0FA8021284600F0B8FA0028AF
:10104000F9D0761CF0B2205C0028F0D170BDC0460B
:101050000034004070470000B0B51A480146183906
:1010600001220A600246143A002111600246083A41
:10107000E1231360021F116018220260FF22426008
:10108000026142628160C160C268D207FCD1C16066
:1010900081610D4B1C68102214431C600724E4433B
:1010A0001D6825401D60036820251D4305600368F9
:1010B00023400360036808241C43944304600348EE
:1010C0000160B0BD180001400010014008ED00E0D3
:1010D0000A0A0B0606D0FF23DB43C94319434369C1
:1010E0000B404361002A02D08169914381617047BE
:1010F000F0B5504A904204D10A784F4B1C68144313
:101100001C600A78D20722D0CC7803252C400A79BB
:101110008B784E78076AAF433C190462046AF02565
:10112000AC4335072D0E64190462046A0C25AC43E8
:101130009B071B0FE3180362036B0224A343D20730
:10114000920F9A180263026B0123134303630A7818
:10115000920722D5CC7803252C400A798B784E78DB
:10116000476AAF433C194462446AF025AC433507F3
:101170002D0E64194462446A0C25AC439B071B0F77
:10118000E3184362036B2024A343D207920E9A18FC
:101190000263026B1023134303630A78520722D5BC
:1011A000CC7803252C400A798B784E78876AAF4338
:1011B0003C198462846AF025AC4335072D0E64190E
:1011C0008462846A0C25AC439B071B0FE31883627F
:1011D000436B0224A343D207920F9A184263426BD7
:1011E0000123134343630A78120722D5CC780325E1
:1011F0002C400A798B784978C66AAE433419C462A8
:10120000C46AF025AC430907090E6118C162C16ABE
:101210000C24A1439B071B0FC918C162416B2023FB
:101220009943D207920E89184163416B10220A43F9
:101230004263F0BD001000408410004001680122AC
:10124000914301607047CA0706D18A070AD44A074A
:101250000ED4090712D47047026B01239A4302632C
:101260008A07F4D5026B10239A4302634A07F0D52C
:10127000426B01239A4342630907ECD5416B10226C
:10128000914341637047016801220A43026070473D
:10129000CA0707D18A0709D449070BD40146703120
:1012A0006C300AE001465831543006E001466031A6
:1012B0005C3002E001466831643000680968000271
:1012C000084380B2704710B50C0A00220B06134683
:1012D00002D043690B40DBB2002C01D0826922406E
:1012E0006240C8B2434013435842584110BD000009
:1012F000B0B5C178C90730491CD042790B680224C7
:10130000A343D207920F9A180A60027901231A4068
:101310000C689C43A2180A6082780B460C3B1C6840
:101320007025AC435207520EA2181A604278CA6167
:1013300002780A62C27892071DD542790B68202490
:10134000A343D207920E9A180A6002790B68102400
:10135000A343D207D20E9A180A6082780B46083B44
:101360001C687025AC435207520EA2181A604278CE
:101370004A6202788A62C27852071BD542794B686A
:101380000224A343D207920F9A184A6002790123DC
:101390001A404C689C43A2184A6082780B1F1C6854
:1013A0007025AC435207520EA2181A604278CA62E6
:1013B00000780863B0BDC046283C00400A0A054BCF
:1013C0005A62C9B299621862186801210143196012
:1013D0007047C046183C004005480168012291430F
:1013E000016070470248016801220A4302607047A9
:1013F000003C0040C2070C4A04D1830708D44007D0
:101400000CD470470B0A1360CBB253608307F6D538
:101410000B0A9360CBB2D3604007F2D5080A106183
:10142000C8B250617047C046443C004080B50320BC
:10143000FF2100F013F8012000F01EF800F014F86E
:1014400017200221FFF76CFC80BD000002490A68EA
:1014500082430A607047C04610400040014A516014
:10146000106070471C4000400248016801220A4396
:10147000026070470040004002490A6802430A6067
:101480007047C0460C40004080B50B48C1885531BC
:10149000C1800A4801784A1C0270094B002119607A
:1014A000D2B20C2A04D3017006480188491C01807D
:1014B0000120FFF7CBFF80BDB8000020C90000204D
:1014C00018400040A2000020F0B581B00D4604464F
:1014D0003248844205D00120E06231498C4200D17B
:1014E0000863206916218843297BAA7B0A430243AB
:1014F0002261A06930218843697B0143A161606951
:101500000C218843297901436161FFF797FC0A2682
:101510007043296800F0C6FF0746314600F0C2FF5D
:101520004643B91B042900D9401C0F2102460A403A
:10153000E3688B43D218E260020AF0231A40E6689F
:101540009E439219E2600009C0B2A268FF239A4349
:101550001018A0602069FE220240226160690840E4
:101560006061E069BF210140E161A868C1B2002962
:1015700002D022690A4322610104090E04D0616984
:10158000020AD2B20A4362610102090E04D0E16983
:10159000000CC0B20843E06101B0F0BD003400406F
:1015A000004800400169202291430161704710B555
:1015B0000C0A00220B06134602D003680B40DBB274
:1015C000002C01D0C26922406240C8B2434013439C
:1015D0005842584110BD4268FF239A435118416058
:1015E000704700000548016801229143016070477F
:1015F0000248016801220A4302607047002400404B
:10160000884370470843704770B582B001AC202012
:10161000E070002626707B482146FFF7DDFA0420A3
:10162000E07079482146FFF7D7FA1020E070624D4C
:1016300028462146FFF7D0FA0820E07028462146C8
:10164000FFF7CAFA0848608026700220012631465A
:10165000FFF772F905203146FFF762FB2846214665
:10166000FFF7BAFA02B070BD01400000B0B5524CAD
:1016700040212046FFF7E9FA002816D040212046F5
:10168000FFF7E3FA00280DD000250F2000F0BEF888
:1016900040212046FFF7D9FA002803D0681CBD2D51
:1016A0000546F2D3454801210170B0BDF0B581B0C7
:1016B0000446544D20212846FFF7C7FA002815D0CC
:1016C00020212846FFF7C1FA00280DD00026082067
:1016D00000F09CF820212846FFF7B7FA002803D035
:1016E000701CBD2E0646F2D31E2061E0464D04213B
:1016F0002846FFF7AAFA002815D004212846FFF74C
:10170000A4FA00280DD00026082000F07FF804215C
:101710002846FFF79AFA002803D0701CBD2E064613
:10172000F2D31B2044E0F64D10212846FFF78DFA36
:10173000002815D010212846FFF787FA00280DD081
:101740000026082000F062F810212846FFF77DFAF5
:10175000002803D0701CBD2E0646F2D3212027E0BE
:1017600008212846FFF771FA002816D008212846DC
:10177000FFF76BFA00280ED000270826304600F04D
:1017800045F828463146FFF760FA002803D0781C58
:10179000BD2F0746F1D322200AE00848017801292D
:1017A00005D11F2121700021017001B0F0BD002082
:1017B000207001B0F0BDC046000800406E0000205F
:1017C000B0B582B001AC0E486080002020700125C9
:1017D00028462946FFF7B0F80A482146FFF7FCF9EA
:1017E00004202946FFF79CFA4020E070FF201230C9
:1017F0002080C2482146FFF7EFF902B0B0BDC046D5
:101800000110000000040040000C004070B50028EA
:1018100011D00446084D094E01E0641E0BD0FFF7BD
:101820000DFBA842F9D3294600F03CFE704300BFEF
:10183000401CFCD3F1E770BD00366E01A0F6FFFF3F
:10184000B0B5464C2078012808D145490A78912145
:101850004900002A00D13231424A5180424D0228CB
:1018600018D12878012815D1002028703C4800782C
:10187000002801D03E4900E03C493E4A127852001F
:10188000895A384A5180002801D03C4800E03A4843
:10189000FFF71AFB2078032807D131490A78384925
:1018A000002A00D137312F4A5180042818D12878D6
:1018B000012815D10020287029480078002801D07F
:1018C0002B4900E029492B4A12785200895A254AAF
:1018D0005180002801D0294800E02748FFF7F4FA9A
:1018E0002078052818D12878012815D100202870E3
:1018F0001B480078002801D01D4900E01B491D4A03
:1019000012785200895A174A5180002801D01B488A
:1019100000E01948FFF7D8FA124842887D20C40039
:10192000A242214613D89120450029463131531E49
:101930009BB28B4211460AD209490978002904D08A
:10194000410010A0FFF7C0FA00E032352946601CC4
:10195000814202D20420FFF74DFDB0BDC800002037
:101960007B0000208C0000206C000020A4260000DA
:101970009A26000098000020AE260000BE26000037
:101980003F020000436F6E74696E656F75735F5F31
:101990005F5F000080B582B00948008862280DD3DF
:1019A0007D20C1000020FFF709FD684601218180EC
:1019B00004490091FFF79CFCFFF714FD02B080BDC5
:1019C0007000002000000604F0B581B069460820D0
:1019D000C870FF2012300880012084072046FFF7DE
:1019E000FBF81E4E002575802846FFF729FF1C488E
:1019F000057035701B480570624F7D711A4805806F
:101A00007D7004202946FFF7F5FC2068F72101408E
:101A100021601348057035703D70FFF7DDFC01B0A3
:101A2000F0BDC046B0B50D4D00246C802046FFF7D8
:101A300007FF0B4804702C700A4804705148447129
:101A400009490C80447004202146FFF7D3FC012093
:101A500080070168F7220A400260B0BD8C000020B8
:101A60006D000020900000208400002080B50F2031
:101A7000C002FEF79FFF80BDB0B5114C21780F2941
:101A800009D81020FEF7DAFC0E490A681018086021
:101A90002078401C10E00B4D286800F003FD9B21CE
:101AA00049004843084900F0FDFC0849088000202F
:101AB00028600A88521C0A80207004480088B0BD43
:101AC0008A00002068000020FF0F00008000002036
:101AD000B0B582B001AC1020E070FF251235258032
:101AE00006482146FFF778F82020E070258022483C
:101AF0002146FFF771F802B0B0BDC046000C0040AF
:101B00000008004070B54B20C001FFF735FA1020E7
:101B1000FEF734FCFFF7DCFFFFF776FD164801689F
:101B2000DF220A400260FFF74FFFFFF7ADF9FFF732
:101B30007DFCFFF745FE114D00242C80FFF79CFF34
:101B40000B280AD8264600F0DFFBFFF795FF0B288D
:101B500003D8701C952E0646F5D32C8008480470D7
:101B60000848447008480470084804700848048015
:101B70000848048070BDC046000800408200002074
:101B80007C000020920000207800002091000020BE
:101B9000C6000020C200002086B0FFF7B3FFFFF7A9
:101BA00065FF1420FFF732FEF64C0025257028460D
:101BB00000F076FB0B2803D30020014600F056FC12
:101BC000F148012103910170F0480570F04908685F
:101BD000DF22049210400860EE490868BF2201929B
:101BE00010400860EC4805700868EF22029210402F
:101BF0000860FFF717FFE94FE94E059517E001214F
:101C0000E8A0FFF761F9EA480680EA480680E14962
:101C10000868019A104008603220FFF7F7FD00F0D5
:101C2000A5FB3C462F46059DFFF71EF8DC4ED74826
:101C30000078012815D1FFF7F9FBFFF727F80646D2
:101C4000FFF70AF8FFF70CF80620FFF713F8700A01
:101C5000D34EC0B2FFF714F8FFF706F80020CB49C7
:101C60000870FFF709FF0146D3480180D3A0FFF7B2
:101C70002BF93846FFF71AFD3878002803D1D248EF
:101C8000394600F017FB387800285CD0CFA0FFF76A
:101C9000C7F93878FFF792F9FFF782F9C64801884B
:101CA000CDA0FFF711F9C24805803878222824D149
:101CB00027462C463078002803D1C9490878401CB3
:101CC0000870C74D2978C748FFF7FEF82978C6A0E5
:101CD000FFF7FAF82878022806D0012825463C4666
:101CE000AE4F07D1012003E0002025463C46AB4F14
:101CF000C24908700020C24908703878212817D1DD
:101D00003178C0A0FFF7E0F83078042803D1BC494F
:101D10000878401C0870BA4800780128294602D08B
:101D2000002802D10399B54801700120AC49087020
:101D30000220C04339782339814202D80398AF4941
:101D40000870B34805807179012904D10020B04A98
:101D50001080AA4A1070AE480088A84A1278012A5A
:101D600008D1012806D88A4A1168049B19401160DD
:101D7000411C0FE0A74A1278D2070DD001290BD0E1
:101D800000219E4A1170824E326820231343336033
:101D9000022801D39E48018038781F2807D10020EF
:101DA0008F49087001219C4A1170954908700026DE
:101DB000304600F075FA20707748007801283BD152
:101DC00038781F2893491BD10878C00718D1FFF72E
:101DD00099FEFEF75BFF0546FEF73EFFFEF740FF6C
:101DE0000620FEF747FF680AFD4DC0B2FEF748FF28
:101DF000FEF73AFF28780121FFF704FC287018E06D
:101E00000878C00718D1F8480078012814D1FFF7E6
:101E100079FEFEF73BFF0546FEF71EFFFEF720FFAB
:101E20000620FEF727FF680AC0B2FEF729FFFEF77B
:101E30001BFFE5480670059D00F066FA0026304657
:101E400000F006FA2078002800D0F2E038781D284B
:101E500020D01E2826D01F28E1495BD108780D46E6
:101E60000921084235D00121FFF7CAFB2870FFF78E
:101E7000D9FDDA4886700670E4480670E4480670BA
:101E8000D0490868029A10400860D3480680E148AB
:101E9000068022E00120DC490870FEF777FF384613
:101EA000CF4936E0CE4800780A210842CB4B1BD000
:101EB000CE48066001205871CD480680C0490868A8
:101EC000049A104008603E705878022809D34000F8
:101ED00008E00121FFF796FB287038462946059D4A
:101EE00017E0401CBD4B58705878411ECAB2072AF3
:101EF00009D88B23D340DA0705D049B24900BDA2E7
:101F0000515AC04A11800928B54903D3B3484670D5
:101F1000401D06703878222827D021282BD01B2876
:101F20002CD10978092211421AD0B948007800282A
:101F300079D13E70A94A9078414241419170002880
:101F400003D12078002800D133E19E490868029A25
:101F500010400860A04806800120AD49087062E08A
:101F600021289F4907D0222808D10978C90755D1CF
:101F700021289B4902D10878C0074FD1A448067098
:101F800051E0C0469E000020B0000020C4000020A8
:101F900000080040000C0040910000207800002064
:101FA000920000205265736574207965730000000B
:101FB000C2000020C600002070000020426174565C
:101FC0006F6C7431000000007A00002052656D6F64
:101FD0007465204B65793A00426174566F6C7400E9
:101FE0008B000020CD260000646F776E5F62745F07
:101FF000626C696E6B5F6C6F636B00008600002023
:10200000CA000020555020627574746F6E00000085
:10201000880000208C0000207900002001207A49EF
:102020000870FEF731FAFEF7EBFA6D484088FEF7CC
:1020300085FD67480088612806D82078002803D1EC
:1020400075480088022806D82078012831D17248C6
:10205000008803282DD32078002810D10121217079
:102060000025284600F002FA6420FFF7CFFB28463F
:10207000059D00F015F9014668A0FEF725FFFFF762
:10208000D1FC50490868029A104008605348867095
:102090004671534827462C46054600782021FFF715
:1020A000B1FA287025463C465B48068000F05EF990
:1020B000484F47480088742808D32178012905D162
:1020C00026703046314600F0D1F903E0622801D392
:1020D0005148068044480078012805D010213B482B
:1020E000FEF7B3FD002845D0364A10684021014371
:1020F000116001204E490870374806804548068027
:1021000010213248FEF7A1FD002800D08CE53D46A5
:10211000274635480670464806702F4C218845A052
:10212000FEF7D2FE3C48018846A0FEF7CDFE20888F
:102130000B2804D32A480078C00700D15FE5274860
:102140008078002808D126480078000704D4224867
:1021500000881F2800D352E51D48008874283C469B
:102160002F46059D00D25FE516490868019A104088
:10217000086059E516480088672802D321780129AC
:102180000FD11848007828490988284A9142B7D3C6
:102190000128B5D10B4A1068402141401160224806
:1021A000ADE76728ACD307490868019A104008607A
:1021B000A6E7044A1068102101431160CCE6C0462E
:1021C00000080040000C0040910000200004004086
:1021D0007000002078000020C20000209200002043
:1021E0008C00002079000020720000207400002084
:1021F000840000200807201C08074038080708074B
:10220000080780707E0000206C0000206D00002018
:1022100090000020C60000208200002061667465E6
:1022200072207361766500009C000020E9030000C5
:102230007B0000204C56545368757444656C61797A
:1022400000000000626174746572795F73656300F9
:10225000B0B50F490A88404B1B889A1AD2B2002A9F
:1022600014D00B800B490B68541CE2180A600A4A10
:102270001368E3181360094B1D8864191C8001283A
:1022800002D0022802D10A4600201060B0BDC0462C
:10229000A0000020A4000020740000209C0000206A
:1022A0000F21C90280004218014B1A604058704744
:1022B000A800002010B5124A53785B0718D5538840
:1022C00094885C40A404240E02D0002008700CE026
:1022D0009B09037093781F2003400B701F2B04D1C0
:1022E0009388834340018342EFD000201060506008
:1022F000D0880449884202D300201060506010BD8D
:10230000B8000020419C0000124802881249098848
:10231000914208D9891A8BB27B21C9008B4217D907
:102320008918491C03E00D4BD2188A4210DC454A3B
:1023300013885B1C13800A4A13885B1C138001807E
:1023400008480188491C018007480188491C018010
:102350007047C0469A000020A2000020E803FFFF5B
:1023600082000020C6000020C200002070B52B486B
:10237000002505702A48012404702A4804702A4860
:102380000168DF220A40026028480168BF220A4033
:10239000026027490D700168EF220A400260254E55
:1023A00075802846FFF74CFA23480570357023489E
:1023B00005702348457123490D8045700420294646
:1023C000FFF718F8A0070168F7220A4002600A2008
:1023D000FFF71CFA1C481021FEF737FC002804D038
:1023E0001AA00121FEF770FD70BD1BA02146FEF76B
:1023F0006BFDE4051C4D2C60BFF34F8FBFF36F8F57
:10240000FEF7B6FC0A20FFF701FA2C60BFF34F8FEE
:10241000BFF36F8FFEF7ACFC70BDC046C400002058
:102420007C000020B000002000080040000C0040AC
:10243000910000208C0000206D0000209000002002
:10244000920000208400002000040040506F776557
:1024500072204F6E00000000536C656570204D6F58
:102460006465204F6E00000080E100E070B50C460E
:102470000546FEF757FB0F20C6023046FEF79AFAD4
:1024800005A02146FEF720FDA80080192146FEF791
:10249000DFFAFEF7D7FA70BD77726974652076614E
:1024A0006C75650043088B421AD3002203098B42E6
:1024B00079D3030A8B425ED3030B8B4242D3030CC6
:1024C0008B4227D30902FF2212BA030C8B4202D39C
:1024D0001212090203D0030B8B4233D31AE0D3E06C
:1024E000411A8041401C704703460B4371D4430896
:1024F0008B42F5D3002203098B4254D3030A8B424B
:1025000039D3030B8B421DD3030C8B4202D3944669
:102510006EE0090AC30B8B4201D3CB03C01A5241B0
:10252000830B8B4201D38B03C01A5241430B8B4266
:1025300001D34B03C01A5241030B8B4201D30B034F
:10254000C01A5241C30A8B4201D3CB02C01A524176
:10255000830A8B4201D38B02C01A5241430A8B4239
:1025600001D34B02C01A5241030A8B4201D30B0222
:10257000C01A5241CDD2C3098B4201D3CB01C01A3C
:10258000524183098B4201D38B01C01A5241430946
:102590008B4201D34B01C01A524103098B4201D334
:1025A0000B01C01A5241C3088B4201D3CB00C01AA1
:1025B000524183088B4201D38B00C01A5241430819
:1025C0008B4201D34B00C01A5241411A52411000B4
:1025D0007047CA0F00D04942031000D34042534015
:1025E00000229C4603098B422DD3030A8B4212D34F
:1025F0008901FC2212BA030A8B420CD38901921181
:102600008B4208D3890192118B4204D3890137D0C0
:10261000921100E08909C3098B4201D3CB01C01A92
:10262000524183098B4201D38B01C01A52414309A5
:102630008B4201D34B01C01A524103098B4201D393
:102640000B01C01A5241C3088B4201D3CB00C01A00
:10265000524183088B4201D38B00C01A5241D9D218
:1026600043088B4201D34B00C01A5241411A00D299
:1026700001465241104663465B1000D3404270470A
:1026800063465B1000D3404201B50021004201D0F7
:10269000C9430846C046C04602BD2201AE013F0202
:1026A000E402E8035401EA017602F802E803427505
:1026B00074746F6E20557020537065656400534DBF
:1026C00050535F66616E2E5370656564006B65796B
:1026D0002E50535F737465700000000000270000E7
:1026E0000000002008000000000100000827000092
:1026F00008000020C80600001C01000000000000C7
:082700000900000000000000C8
:04000005000000BD3A
:00000001FF
