:020000040000FA
:100000006006002055010000510700004F07000066
:1000100000000000000000000000000000000000E0
:10002000000000000000000000000000D5070000F4
:10003000000000000000000053070000D707000088
:10004000000000006D0100006D0100006D01000066
:100050006D0100006D0100006D0100000000000056
:1000600000000000000000006D0100006D010000B4
:100070006D0100006D0100006D0100000000000036
:10008000000000006D0100006D0100006D01000026
:100090000000000000000000810500006D0100006C
:1000A0006D0100006D0100006D0100006D01000098
:1000B0006D0100006D0100006D01000000F002F80C
:1000C00000F038F80CA030C8083824182D18671E26
:1000D000A246AB4654465D46AC4201D100F02AF838
:1000E0007E460F3EB6460FCC0126334200D0FB1AA7
:1000F0003343A246AB461847100B0000200B00000C
:100100000023002400250026103A01D378C1FBD833
:10011000520700D330C100D50B60704710B5642979
:1001200002D100F083F810BD002010BD1FB51FBD27
:1001300010B510BD00F03DF91146FFF7F7FF00F0D4
:1001400015FC00F055F903B4FFF7F2FF03BC00F013
:100150005BF90000094880F308880948804709488E
:100160000047FEE7FEE7FEE7FEE7FEE7FEE70000EA
:1001700005480649064A074B704700006006002004
:10018000D9070000BD0000006000002060060020CC
:1001900060020020600200200FB41CB5074B06AAC5
:1001A0007B4469460090059800F0D7F80020694626
:1001B00000F0E6F81CBC08BC04B01847DD010000E4
:1001C000F8B50E460446002020622046E1688847C4
:1001D000002829D0252802D06268A16820E0E168C3
:1001E00020460027884705001ED028464138192898
:1001F00002D80127FF0220353246204627602946D3
:10020000FFF78CFF002808D0012804D0F61DF6085F
:10021000F6000836D9E7361DD7E762682846A16898
:100220009047206A401CCFE7206AF8BDF7B500254B
:1002300075291068009914A611D0C046C046002840
:1002400002DA404211A608E0009909688A0701D540
:100250000FA602E0490704D50EA6012501E0C0461D
:10026000C046009F0024243704E000F08EF83031AF
:100270003955641C0028F8D12B4632462146009897
:1002800000F00DF8FEBD0000000000002D00000091
:100290002B00000020000000704770477047FFB53A
:1002A00004460D4681B0243000902168880604D5AC
:1002B0001022E0699143216000E00120A84201DDA5
:1002C000471B00E000270498A1697A191018081A42
:1002D000A0612078C00602D42046C046C046002651
:1002E00008E003986268A168805D9047206A401C1E
:1002F000761C206204988642F3DB2078C0060AD57B
:100300002046C046C04606E06268A168302090479B
:10031000206A401C206238467F1E0028F4DC07E07B
:1003200000986268A168405D9047206A401C206286
:1003300028466D1E0028F3DC2046C046C0462078C3
:10034000000602D5022005B0F0BD0120FBE7000049
:1003500001694A1C02610878704700B58FB00291AC
:1003600000210591054901937944039111460490B8
:100370006846FFF725FF0FB000BD0000E5FFFFFF57
:100380000A681070521C0A60704701468008081AFB
:1003900002091018020A1018020C1018C008820076
:1003A00012185200891A01E0401C0A390A29FBD2AE
:1003B0007047754600F024F8AE460500694653467E
:1003C000C008C000854618B020B5FFF7D1FE60BC5C
:1003D000B64600260027C0C5C0C5C0C5C0C5C0C53B
:1003E000C0C5C0C5C0C5403D490849008D467047DD
:1003F00010B50446C046C0462046FFF7A4FE10BD17
:10040000004870470000002001491820ABBEFEE7FD
:10041000260002007047B0B50025284600F020F9FC
:1004200000F0A8F80320C401204600F01FF800F0F7
:100430009BF800F01DF9204600F0F6F80028FAD0ED
:10044000204600F013F8681C092D0546F3D300F090
:100450007FF800F0CFF8404240B200F001F900F020
:100460007DF8204600F002F8B0BD0000FF21CA432D
:10047000C1431143C005734803D4C2680A40C26037
:10048000704702680A4002607047C046F0B52B49C9
:100490000B1F1A680124A2431A6002781C68702599
:1004A000AC435207520EA2181A6084791D680222CA
:1004B0009543E407A40F2C191C60037A0C680825E7
:1004C000AC43DB071B0FE3180B6084780D68302307
:1004D0009D43E407E40E2C190C608478A4004025A9
:1004E0002C400E68AE4334190C60858800242E46DB
:1004F000E640F60703D1641C092CF8D109240D68E5
:1005000015430D600F2634400D46083D2F68B74354
:100510003C192C60D2430C6814400C60C4790E68FE
:100520001640E207920FB2180A60296899432960C1
:100530004078296801432960F0BDC04688440040E6
:1005400001210172818000218170C180018070478A
:100550004A48016801229143016070473F480168A1
:1005600001229143016070474448016801220A4317
:10057000026070473948016801220A4302607047EF
:1005800070470000B0B59AB00320C401204600F0C7
:100590004BF801281DD12046FFF768FF00F02AF82C
:1005A000024601AC0CA12046FFF7F6FD207800289A
:1005B0000FD001ADDB4CC1B2204600F0D0F9802154
:1005C000204600F0B8F90028F9D068786D1C0028A2
:1005D000F1D11AB0B0BDC046414443204368616EBA
:1005E0006E656C20382056616C75653A25640D0A7D
:1005F000000000000F2108020A4A1346083B1B684E
:100600001B0707D4136852680A40F03019010140F3
:10061000881870475168126812020240C8B2101858
:100620007047C04690440040C105064902D4C968DD
:10063000014002E009680840C1B2C8B2411E8841C9
:100640007047C0468044004004490A6804239A4326
:10065000C007400F101808607047C046C0440040F3
:100660003F210140014801607047C046C44400403A
:100670000248016801220A43026070478444004036
:1006800080B582B011210A0101A90A80C0000E4A7A
:1006900013181B79CB70105800F018F802B080BD09
:1006A00080B5C100084A50585118097900F047F840
:1006B00080BDC04680B5C100034A50585118097921
:1006C00000F041F880BDC046F80B0000F0B584B0E2
:1006D000C4680369009080680390C878029000267F
:1006E000019103E03C43761C082E21D001200746EF
:1006F000B740029A1742F6D00D78102219462A40C8
:1007000002D0039B3B4301E0039BBB4303930B4697
:10071000002A00D102200199085C002803D03B4345
:10072000E807DFD102E0BB43E807DBD1BC43DAE7EF
:100730000098C46003610399816004B0F0BD026851
:100740000A430260704702684A400260704770477F
:1007500070477047C10509D481050DD4410504D502
:10076000C0B208490A6A02430A627047C0B205492A
:100770000A6802430A607047C0B20249CA6802436D
:10078000CA6070471C000140B0B52E4D28460C3899
:100790000068C0B2B42811D0D22811D0E12812D1FB
:1007A0002868C006800F0A4CC4400321204600F090
:1007B00027F92968890607D52046B0BD0348B0BD92
:1007C0007D208002B0BD0020B0BDC0460024F400F2
:1007D000006CDC0270477047B0B51A480146183902
:1007E00001220A600246143A002111600246083ACA
:1007F000E1231360021F116018220260FF22426091
:10080000026142628160C160C268D207FCD1C160EE
:1008100081610D4B1C68102214431C600724E443C3
:100820001D6825401D60036820251D430560036881
:1008300023400360036808241C4394430460034876
:100840000160B0BD180001400010014008ED00E05B
:10085000F0B581B00D4604466748844205D00120BA
:10086000E06231498C4200D1086320691621884337
:10087000297BAA7B0A4302432261A0693021884375
:10088000697B0143A16160690C2188432979014397
:100890006161FFF779FF0A267043296800F0B0F81C
:1008A0000746314600F0ACF84643B91B042900D98D
:1008B000401C0F2102460A40E3688B43D218E260D5
:1008C000020AF0231A40E6689E439219E26000098A
:1008D000C0B2A268FF239A431018A0602069FE22CC
:1008E00002402261606908406061E069BF21014007
:1008F000E161A868C1B2002902D022690A432261DD
:100900000104090E04D06169020AD2B20A4362618D
:100910000102090E04D0E169000CC0B20843E06195
:1009200001B0F0BD003400400048004001692022C1
:1009300091430161704710B50C0A00220B06134663
:1009400002D003680B40DBB2002C01D0C269224008
:100950006240C8B2434013435842584110BD4268F8
:10096000FF239A43511841607047000084B000246F
:100970002046FFF785FE01252846FFF781FE204629
:10098000FFF78EFE2846FFF78BFE2046FFF75CFE42
:100990006E463046FFF7D4FDB5710820B0802020A8
:1009A00070703046FFF772FDFFF735FDFFF7DCFD95
:1009B000FFF75EFE2120C000FFF7CCFE69468C7376
:1009C0008C810C20087102944B20C00100900A4CCD
:1009D0002046FFF73DFF2046FFF7A8FF074CFFF733
:1009E000D1FD0020FFF766FE00940098411E0091A3
:1009F0000028FAD1F3E7C04600340040F5FF0F00AD
:100A000043088B421AD3002203098B4279D3030A8D
:100A10008B425ED3030B8B4242D3030C8B4227D312
:100A20000902FF2212BA030C8B4202D312120902EE
:100A300003D0030B8B4233D31AE0D3E0411A804139
:100A4000401C704703460B4371D443088B42F5D3D7
:100A5000002203098B4254D3030A8B4239D3030B80
:100A60008B421DD3030C8B4202D394466EE0090ADD
:100A7000C30B8B4201D3CB03C01A5241830B8B4271
:100A800001D38B03C01A5241430B8B4201D34B035A
:100A9000C01A5241030B8B4201D30B03C01A5241BF
:100AA000C30A8B4201D3CB02C01A5241830A8B4244
:100AB00001D38B02C01A5241430A8B4201D34B022D
:100AC000C01A5241030A8B4201D30B02C01A524191
:100AD000CDD2C3098B4201D3CB01C01A5241830945
:100AE0008B4201D38B01C01A524143098B4201D37F
:100AF0004B01C01A524103098B4201D30B01C01AAA
:100B00005241C3088B4201D3CB00C01A5241830823
:100B10008B4201D38B00C01A524143088B4201D350
:100B20004B00C01A5241411A524110007047CA0F7F
:100B300000D04942031000D34042534000229C465B
:100B400003098B422DD3030A8B4212D38901FC2265
:100B500012BA030A8B420CD3890192118B4208D33B
:100B6000890192118B4204D3890137D0921100E0A0
:100B70008909C3098B4201D3CB01C01A52418309B1
:100B80008B4201D38B01C01A524143098B4201D3DE
:100B90004B01C01A524103098B4201D30B01C01A09
:100BA0005241C3088B4201D3CB00C01A5241830883
:100BB0008B4201D38B00C01A5241D9D243088B42D9
:100BC00001D34B00C01A5241411A00D20146524192
:100BD000104663465B1000D34042704763465B108B
:100BE00000D3404201B50021004201D0C94308466C
:100BF000C046C04602BD00000008004020000000C2
:100C00000008004020000000180C00000000002038
:080C1000600600000001000075
:04000005000000BD3A
:00000001FF
