:020000040000FA
:1000000060060020450100009F03000087030000F8
:1000100000000000000000000000000000000000E0
:10002000000000000000000000000000F3030000DA
:100030000000000000000000F1030000F5030000D4
:10004000000000005D0100005D0100005D01000096
:100050005D0100005D010000710200000000000071
:1000600000000000000000005D0100005D010000D4
:100070005D0100005D0100005D0100000000000066
:10008000000000005D0100005D0100005D01000056
:1000900000000000000000005D0100005D010000A4
:1000A0005D0100005D0100005D0100005D010000D8
:1000B0005D0100005D0100005D01000000F002F83C
:1000C00000F030F80CA030C8083824182D18671E2E
:1000D000A246AB4654465D46AC4201D100F022F840
:1000E0007E460F3EB6460FCC0126334200D0FB1AA7
:1000F0003343A246AB461847B8030000C8030000CC
:100100000023002400250026103A01D378C1FBD833
:10011000520700D330C100D50B6070471FB51FBD1B
:1001200010B510BD00F033F81146FFF7F7FF00F0EF
:100130009FF900F04BF803B4FFF7F2FF03BC00F0A7
:1001400051F80000094880F30888094880470948A9
:100150000047FEE7FEE7FEE7FEE7FEE7FEE70000FA
:1001600005480649064A074B704700006006002014
:10017000F9030000BD0000006000002060060020C0
:10018000600200206002002070477047704775468B
:1001900000F024F8AE46050069465346C008C0008A
:1001A000854618B020B5FFF7DBFF60BCB6460026D9
:1001B0000027C0C5C0C5C0C5C0C5C0C5C0C5C0C575
:1001C000C0C5403D490849008D46704710B50446FA
:1001D000C046C0462046FFF7AEFF10BD004870473E
:1001E0000000002001491820ABBEFEE726000200F7
:1001F0007047000080B582B001AA0120107083030F
:100200005380002905D001A988700320022100F045
:100210003BF8034801A900F079F802B080BDC04660
:100220000008004080B582B011210A0101A90A80AE
:10023000C0000E4A13181B79CB70105800F066F8F6
:1002400002B080BD80B5C100084A505851180979E4
:1002500000F058F880BDC04680B5C100034A505830
:100260005118097900F08BF880BDC046A004000049
:1002700080B500F089F880BD01218140014801600E
:100280007047C04608180040062838D8800001A2F0
:1002900010588746B1020000C1020000CF020000E2
:1002A000DD020000FF020000FF020000EF0200007C
:1002B00003200140124A13688343581810607047A6
:1002C0000F4802680C239A438907090F0CE00C4879
:1002D000026830239A438907890E05E008480268BE
:1002E000C0239A438907090E5118016070470448DA
:1002F000426804239A43C907490F51184160704767
:100300000018004002688A4302607047F0B584B06C
:10031000C4680369009080680390C8780290002642
:10032000019103E03C43761C082E21D001200746B2
:10033000B740029A1742F6D00D78102219462A408B
:1003400002D0039B3B4301E0039BBB4303930B465B
:10035000002A00D102200199085C002803D03B4309
:10036000E807DFD102E0BB43E807DBD1BC43DAE7B3
:100370000098C46003610399816004B0F0BD026815
:100380004A4002607047704780B50020FFF764FF65
:100390000120FFF761FF0320FFF76EFF80BD70476C
:1003A00010B5002805D40322034693430E4A9A1839
:1003B00003E00C2202400B4BD2188307DB0E8907A7
:1003C000090E9940FF249C401368A3430B4313601C
:1003D000002805D41F210840012181400348016005
:1003E00010BDC04614ED00E000E400E000E100E0D4
:1003F0007047704770470000B0B51A480146183979
:1004000001220A600246143A002111600246083AAD
:10041000E1231360021F116018220260FF22426074
:10042000026142628160C160C268D207FCD1C160D2
:1004300081610D4B1C68102214431C600724E443A7
:100440001D6825401D60036820251D430560036865
:1004500023400360036808241C439443046003485A
:100460000160B0BD180001400010014008ED00E03F
:1004700000252846FFF7D6FE01242046FFF7D2FECE
:100480002846FFF7DFFE2046FFF7DCFE2846214620
:10049000FFF7B0FE06202146FFF782FFFEE70000CF
:1004A000000800402000000000080040200000007C
:1004B000C0040000000000206006000000010000F1
:04000005000000BD3A
:00000001FF
