:020000040000FA
:1000000068070020610100003D0B0000410900006D
:1000100000000000000000000000000000000000E0
:100020000000000000000000000000002D0C000097
:100030000000000000000000690B0000310C00000F
:10004000000000007901000079010000490700006C
:100050007901000079010000790100000000000032
:100060000000000000000000790100002D100000D9
:100070007901000079010000790100000000000012
:100080000000000079010000790100007901000002
:100090000000000000000000CD0500007901000014
:1000A0007901000079010000790100007901000068
:1000B00079010000790100007901000000F002F8E8
:1000C00000F03EF80CA030C8083824182D18A246BD
:1000D000671EAB4654465D46AC4201D100F030F895
:1000E0007E460F3E0FCCB6460126334200D0FB1AA7
:1000F000A246AB4633431847481D0000681D000068
:10010000103A02D378C878C1FAD8520701D330C860
:1001100030C101D504680C60704700000023002442
:1001200000250026103A01D378C1FBD8520700D32E
:1001300030C100D50B6070471FB51FBD10B510BD95
:1001400000F0E0F81146FFF7F7FF01F055FC00F072
:10015000F8F803B4FFF7F2FF03BC00F0FFF800006B
:10016000094880F308880948804709480047FEE7A6
:10017000FEE7FEE7FEE7FEE7FEE70000054806496A
:10018000064A074B7047000068070020890C0000F2
:10019000BD000000680100206807002068030020FF
:1001A00068030020002203098B422CD3030A8B42F0
:1001B00011D300239C464EE003460B433CD400225F
:1001C00043088B4231D303098B421CD3030A8B4271
:1001D00001D394463FE0C3098B4201D3CB01C01A3F
:1001E000524183098B4201D38B01C01A524143090A
:1001F0008B4201D34B01C01A524103098B4201D3F8
:100200000B01C01A5241C3088B4201D3CB00C01A64
:10021000524183088B4201D38B00C01A52414308DC
:100220008B4201D34B00C01A5241411A00D2014601
:100230005241104670475DE0CA0F00D0494203109A
:1002400000D34042534000229C4603098B422DD3E9
:10025000030A8B4212D3FC22890112BA030A8B4291
:100260000CD3890192118B4208D3890192118B42E0
:1002700004D389013AD0921100E08909C3098B4265
:1002800001D3CB01C01A524183098B4201D38B01A8
:10029000C01A524143098B4201D34B01C01A52414B
:1002A00003098B4201D30B01C01A5241C3088B4290
:1002B00001D3CB00C01A524183088B4201D38B007B
:1002C000C01A5241D9D243088B4201D34B00C01A05
:1002D0005241411A00D20146634652415B1010461A
:1002E00001D34042002B00D54942704763465B1062
:1002F00000D3404201B50020C046C04602BD704751
:1003000070477047754600F025F8AE46050069460F
:100310005346C008C000854618B020B5FFF72EFF31
:1003200060BC00274908B6460026C0C5C0C5C0C588
:10033000C0C5C0C5C0C5C0C5C0C5403D49008D468B
:10034000704710B50446C046C0462046FFF701FF7F
:1003500010BD00000048704704010020014918202A
:10036000ABBEFEE726000200704770B500250026F0
:10037000002000F0A5F900F01FF9FF20813000F007
:100380007DF800F00FF900F0A3F900240CE000BFA5
:10039000FF20813000F046F90028F9D0FF2081309D
:1003A00000F06CF8601CC4B20A2CF0DB00F0E6F838
:1003B00000F010F906460120C002801B45B2284615
:1003C00000F07EF900F0E4F8FF20813000F056F8EC
:1003D00070BD00001FB500216846817001700821C2
:1003E000C1706946104800F041FA002000F05AF947
:1003F00001A800F0B7F8102168460181012181723F
:1004000020214171062101710121017301A800F031
:100410004BF8FFF7AAFF0521162000F091FB00F032
:10042000C1F800F055F91FBD000C004010B5A02028
:1004300000F0ECF8012806D1A02000F015F800F03B
:10044000C9F80649488006480078012805D10020EF
:100450000349087001200349087010BD38000020CE
:10046000140000200400002003490968C022024053
:100470009143014A1160704780440040FF210131DF
:100480000140002906D007490968C2B29143054AD4
:10049000116005E00349C968C2B29143014AD160C5
:1004A000704700008044004010B504462C48406866
:1004B000400840002A494860084640687021884347
:1004C00021780901702211400843254948600846F7
:1004D000406802218843A179490002221140084363
:1004E0001F4948600846806808218843217AC9006E
:1004F0000822114008431A49886008468068302164
:100500008843A178C907C90E302211400843144915
:1005100088600846806840218843A17809118901D4
:100520004022114008430E498860A08800F092F8EC
:100530000B48806802218843E1794900022211407A
:100540000843074988600846006830218843044909
:10055000086008460068617808430149086010BDDA
:1005600080440040012181800021817101210172BC
:100570000021017081704170C1717047034840686B
:100580004008400001494860704700008044004036
:1005900003480068400840000149086070470000B7
:1005A000C04400400348406840084000401C0149E6
:1005B000486070478044004003480068400840009D
:1005C000401C014908607047C044004010B5FFF767
:1005D0002DFF10BD0C4B9B681B07DB0F002B09D0B8
:1005E000094B5B69D9B2084B1B691A07120F10023D
:1005F000084308E0044B1B69DAB2034B5B69190737
:10060000090F100108437047804400400146044828
:1006100000680840884201D1012070470020FCE7B3
:10062000804400400146FF2001300840002804D0EB
:10063000074800680840C2B203E00548C0680840A7
:10064000C2B2002A01D0012070470020FCE7000060
:10065000804400400146002007E0012282400A4019
:10066000002A00D003E0421C90B20928F5DB00BF4D
:100670000B4A926802239A43921C094B9A601A46CD
:1006800012681209120103071B0F1A43044B1A6068
:100690001A46926802239A43014B9A607047000001
:1006A00080440040054909680422914382000423E4
:1006B0001A401143014A116070470000C0440040D5
:1006C0008106890E014A516070470000C044004015
:1006D0000348406840084000401C0149486070479A
:1006E0008044004010B500F005FA10BD1CB59621FD
:1006F000022000F05DFD04216846C1700621817072
:100700000121017100214171018000F035FD0420BB
:1007100000F08EFD00F082FD1CBD70B504469621F0
:10072000614308466421FFF73DFD0546002D07D0D3
:10073000A9B2042000F0A0FD042000F079FD02E041
:10074000042000F049FD70BD10B50221480700F0FB
:10075000CCF800281AD11648006800280AD015489D
:100760000178154802780078401C134B1870134824
:10077000815404E0002010490870114908700020DD
:100780001049086032200A4908600CE00D480278E0
:100790000B4801780078401C094B18700A484254F5
:1007A000002004490860002000F010F810BD00008F
:1007B0002C0000202000002019000020C200002092
:1007C0001A00002024000020E200002001218140C6
:1007D000014A9160704700000018004010B50028E1
:1007E00009D11F4A1268920892008B079B0F1A4387
:1007F0001B4B1A6032E001280AD1194A12680C23F7
:100800009A438B000C2423401A43154B1A6025E0B1
:1008100002280AD1124A126830239A430B0130246D
:1008200023401A430E4B1A6018E003280AD10C4AE1
:100830001268C0239A438B01C02423401A43084BFB
:100840001A600BE0062809D1054A526804239A432E
:100850008B00042423401A43014B5A6010BD000052
:100860000018004002688A4302607047F8B50246EB
:10087000D56813699668009600242FE00120A040F7
:10088000CE780640002E00D126E02E46864335461F
:100890001E4686433346009E864300960E78F60732
:1008A000F60F002E02D02E46064335460E7810274E
:1008B0003E40002E09D0009E064300964E78002E42
:1008C00009D01E460643334605E08E78002E02D03E
:1008D0001E460643334600BF661CF4B2082CCDDB2F
:1008E000D5601361009E9660F8BD024653680B40C8
:1008F000002B01D0012300E0002318467047026856
:100900000A430260704702684A4002607047000074
:100910000021002000BF0DE0084A525C0B2A07DBD3
:10092000064A525C102A03DC01228A40024390B23C
:100930004A1CD1B20C29EFDB70470000E200002016
:10094000704710B5044600F00DF800F011F80620CD
:1009500000F01AF8E103080E00F01CF800F00EF8A1
:1009600010BD0000CC200149086070470020004005
:10097000552001490860704700200040AA20014925
:10098000086070470020004001494860704700003F
:1009900000200040014988607047000000200040AE
:1009A00008B501216846017041700221C170012122
:1009B0008170694601208007FFF758FF032100205E
:1009C000FFF70CFF0221032000F0BAF808BD000079
:1009D0001CB5FFF7E5FFFF20813000F0D1F80021C2
:1009E00068464171C62141800521018001210171C4
:1009F0006946074800F057FA0121054800F0B2FAAD
:100A000002210B2000F09CF8014800F098FA1CBD70
:100A1000003800403EB500F0D9F8044600F01CFE56
:100A2000012168460170032181700021417001217C
:100A30000171C17069461D4800F05DF91B4800F066
:100A40007EFA00BF0221194800F0D7FA0028F9D039
:100A50000121164800F0B2FA6946088102211348C4
:100A600000F03AF900BF0221104800F0C6FA002851
:100A7000F9D001210D4800F0A1FA6A465081022107
:100A80000A4800F029F90121084800F037FA074820
:100A900000F02FFA6A4653891289991AE000FFF78D
:100AA00081FB054600F0CEFD28463EBD00380040E3
:100AB0001CB501216846C1700621817001210171B8
:100AC00000214171018000F057FB012000F0B0FBD4
:100AD00000F0A4FB1CBD70B50446C8216143084664
:100AE0006421FFF75FFB0546A9B2012000F0C4FBBB
:100AF00070BD00000F4800681021884310300D4978
:100B0000086008460068C008C00008600A4880699C
:100B10002021884320300849886108468069C00840
:100B2000C00088610846806918218843083002495E
:100B300088617047001001400000014070470000CC
:100B400070B504460D462946204600F08FFD20462C
:100B5000002805DBC206D20E01219140014A116036
:100B600000BF70BD00E100E07047000000B5002349
:100B7000FFF7CEFE03460148838500BD3800002004
:100B8000FF2101310140002906D00F49C969C2B2D5
:100B900011430D4AD16116E00121490201400029AB
:100BA00006D00949896AC2B21143074A91620AE034
:100BB000012189020140002905D00349C96BC2B255
:100BC0001143014AD16370470000014070B5002510
:100BD00000261348C068C4B2E12C16D110488069C1
:100BE000C006850F0120A84001460E48FFF7DAFA3B
:100BF00006460B4880698006C00F00280DD10321EE
:100C00003046FFF7CFFA064607E0B42C01D1064E76
:100C100003E0D22C01D17D26B602304670BD000023
:100C200000000140006CDC020024F400704700006A
:100C300013480069401C1249086108468069401C3D
:100C4000886108464069401C48610846C068401CED
:100C5000C86008468068401C88600A480068002810
:100C600004D008480068401E064908600448406BEC
:100C7000002804D00248406B401E01494863704779
:100C8000380000200000002010B501201049086045
:100C900000204860E1200861002048611820886138
:100CA000FF20C8618862C86300200862486200BFF4
:100CB0000748406AC007C00F0028F9D104494862BC
:100CC0000863FFF70FFD00200249886010BD000097
:100CD0000000014000ED00E010B5CAB20C04230E84
:100CE000002A02D0446994434461002B02D08469F5
:100CF0009C43846110BD38B505460C4621782846D2
:100D000000F024F92078C007C00F002807D06078D1
:100D10000090A378E2782179284600F028F820781E
:100D200002210840002807D060780090A378E2787C
:100D30002179284600F042F8207804210840002854
:100D400007D060780090A378E2782179284600F0F7
:100D50005CF8207808210840002807D060780090CF
:100D6000A378E2782179284600F076F838BDF0B50E
:100D7000059C056AAD08AD009607B60F35430562C0
:100D8000056AF026B5432601F0273E40354305624B
:100D9000056A0C26B5439E000C273E40354305628C
:100DA000056B0226B5434E0002273E4035430563DE
:100DB000056B6D086D006D1C0563F0BDF0B5059CFD
:100DC000456AAD08AD009607B60F35434562456AE2
:100DD000F026B5432601F0273E4035434562456A7B
:100DE0000C26B5439E000C273E4035434562056BFB
:100DF0002026B5434E0120273E4035430563056B51
:100E00001026B54310350563F0BDF0B5059C856A25
:100E1000AD08AD009607B60F35438562856AF026AA
:100E2000B5432601F0273E4035438562856A0C268E
:100E3000B5439E000C273E4035438562456B022634
:100E4000B5434E0002273E4035434563456B6D0870
:100E50006D006D1C4563F0BDF0B5059CC56AAD081D
:100E6000AD009607B60F3543C562C56AF026B54397
:100E70002601F0273E403543C562C56A0C26B543BE
:100E80009E000C273E403543C562456B2026B54386
:100E90004E0120273E4035434563456B1026B54340
:100EA00010354563F0BD10B54A88121282648A7805
:100EB000C2640A88121202640A78426402686023DB
:100EC0009A434B795B01602423401A430260026815
:100ED00010239A434B791B111B01102423401A4302
:100EE00002600A790265C26952085200521CC2614E
:100EF00010BD01684908490001607047CA07D20F58
:100F0000002A03D0026B52085200026302220A40F8
:100F1000002A03D0026B10239A43026304220A4082
:100F2000002A03D0426B52085200426308220A4052
:100F3000002A03D0426B10239A4342637047016832
:100F400049084900491C016070470000044A90426A
:100F500004D1842212580A4384231A507047000097
:100F60000010004002690A430261704701460020F8
:100F70004A6D90B20206100C8A6D92B2104370470F
:100F800001460020CA6D90B20206100C0A6E92B2A1
:100F900010437047014600204A6E90B20206100CC2
:100FA0008A6E92B21043704701460020CA6E90B21A
:100FB0000206100C0A6F92B21043704710B5044637
:100FC0000B46D807C00F002803D02046FFF7CEFFFE
:100FD00010BD02201840002803D02046FFF7D0FFA4
:100FE000F6E704201840002803D02046FFF7D2FF80
:100FF000EEE72046FFF7D8FFEAE770B50246002586
:101000000026CBB20804040E002B02D05069184011
:101010000546002C02D0906920400646AB4203D121
:10102000B44201D1012070BD0020FCE710B50E488C
:101030000068401C0C4908600C480068401C0B49C3
:10104000086001210A48FFF747FE0A4800680028A7
:1010500008D008480068401E06490860002801D1F1
:10106000FFF784FD10BD00002400002020000020B8
:10107000003800402C0000201349896A0222914365
:101080004279520002231A4011430F4A91621146DD
:10109000896A490849000279D207D20F11430A4AE6
:1010A00091621146C96970229143827812017023BE
:1010B0001A401143044AD16101880912024A4032A0
:1010C0005160017891607047003C00401449896A82
:1010D000202291434279520120231A401143104AA1
:1010E00091621146896A10229143027912011023FC
:1010F0001A4011430A4A91621146096A70229143CB
:101100008278120170231A401143054A1162018846
:101110000912034A4032D160017811617047000022
:10112000003C00401349C96A0222914342795200AF
:1011300002231A4011430F4AD1621146C96A490875
:1011400049000279D207D20F11430A4AD1621146EF
:10115000496A702291438278120170231A40114328
:10116000044A516201880912024A403251610178F1
:1011700091617047003C004010B50446E078C0071C
:10118000C00F002802D02046FFF776FFE07802214A
:101190000840002802D02046FFF798FFE07804219D
:1011A0000840002802D02046FFF7BCFF10BD000019
:1011B0000A04120E074BDA63CAB2064B40331A60B8
:1011C000044A9063926952085200521C014B9A6182
:1011D00070470000003C0040C107C90F002905D03E
:1011E0000D49896A490849000B4A91620221014070
:1011F000002905D00849896A10229143064A916264
:1012000004210140002905D00349C96A4908490061
:10121000014AD16270470000003C0040034800686A
:1012200040084000401C014908607047003C0040F5
:10123000C107C90F002906D00E49896A490849002B
:10124000491C0C4A916202210140002906D009493B
:10125000896A102291431031064A916204210140AB
:10126000002906D00349C96A49084900491C014AB6
:10127000D1627047003C0040C207D20F002A05D05F
:101280000A04120E0C4B5A60CAB29A600222024043
:10129000002A05D00A04120E074BDA60CAB21A619E
:1012A00004220240002A05D00A04120E024B5A61A1
:1012B000CAB29A6170470000403C004010B500205F
:1012C0007649086000BF09E04100754A515A734AE7
:1012D00012688918714A1160411CC8B20F28F3DBEB
:1012E0000F216E480068FEF75DFF6C4908600968D1
:1012F000FF22F532514308466A49FEF753FF044680
:10130000FF21B031614308466421FEF74BFF0446DC
:10131000EF208000844241D86348407900283DD1C5
:1013200061480079002839D160480078401CC0B27B
:101330005E490870012878DD08460078022801DD42
:101340000220087001205849087100200877002108
:10135000554820304170817100205349C871FFF712
:10136000DCF9002050498871FFF7B5FB00F04EFD15
:1013700020214F48FFF776FA20214E4800F03EFD2D
:1013800040214B4800F03AFD0421080700F050FDD1
:101390000421FF20F53000F0DFFA46E046488442A1
:1013A00004D30020414908703F49087143488442F2
:1013B00023D93D48407901281FD110214048FFF72B
:1013C00094FA002831D03F480078401CC0B23D4913
:1013D0000870012829DD08460078032801DD032074
:1013E00008700020304948710421080700F006FD0C
:1013F00040212F4800F01CFD17E03048844214D2F1
:1014000030480078002810DD2E480078401EC0B219
:101410002C490870002808D010212948FFF765FAE8
:10142000002802D001202049487110212448FFF7EC
:101430005CFA002811D02448007800280DD1402102
:101440001B4800F0DBFC0421080700F0D7FC01205A
:10145000154948711C49087016E010211848FFF71B
:1014600044FA002810D11848007801280CD14021F6
:101470000F4800F0C3FC0421080700F0BFFC002067
:10148000094948711049087007484079012803D17B
:101490004021074800F0AAFC10BD00001000002009
:1014A00070000020FF0F0000380000200C0000201A
:1014B000000C0040000800401B040000A3050000D1
:1014C000000400400D0000200B00002010B500F0CB
:1014D000ADFB00F069FB5648007F01280ED10020CB
:1014E0005349087708468079002807DD20215148B4
:1014F000FFF709FA2021504800F078FC4C482030D2
:101500004078012841D1002149482030417000F045
:101510007DFC4748807900280AD101204449887120
:101520000421444800F084FC2B20FFF7F6F82CE05F
:101530003F48807901280AD102203D498871022163
:101540003C4800F075FC4220FFF7E7F81DE0384802
:101550008079022807D103203549887180213648D7
:1015600000F066FC11E03248807903280DD100209C
:101570002F49887120212F48FFF774F920212E4828
:1015800000F03CFC0020FFF7C8F8294820308079A3
:10159000012822D100212648203081712038C079CD
:1015A000002806D101202249C8710A20FFF793FACA
:1015B00013E01F48C079012806D102201C49C871D8
:1015C0006320FFF788FA08E01948C079022804D19F
:1015D00000201749C871FFF77EFA15488079032863
:1015E00025D116480088552809DA154800780028C2
:1015F00005D112480088401C1049088002E00120F3
:101600000F4908700D480088282809DD0C4800782B
:10161000002805D009480088401E0849088002E0DB
:1016200000200749087005490878FFF776F810BDD3
:1016300038000020000C0040000800400800002096
:101640000A00002003480068400840000149086083
:101650007047000000240040034800684008400034
:10166000401C0149086070470024004010B5002864
:1016700019DB1A4A03231B02D21883089B00D25895
:101680008307DC0EFF23A3409A438B071B0E8407BE
:10169000E40EA3401A43114B032424021B198408AF
:1016A000A4001A5118E00E4A03071B0F083B9B08C1
:1016B0009B00D2588307DC0EFF23A3409A438B077D
:1016C0001B0E8407E40EA3401A43054B0407240FA6
:1016D000083CA408A4001A5110BD000000E100E07D
:1016E0001CED00E010B5002819DB1A4A03231B0289
:1016F000D21883089B00D2588307DC0EFF23A34037
:101700009A438B071B0E8407E40EA3401A43114B28
:10171000032424021B198408A4001A5118E00E4A5D
:1017200003071B0F083B9B089B00D2588307DC0E66
:10173000FF23A3409A438B071B0E8407E40EA340AC
:101740001A43054B0407240F083CA408A4001A51AF
:1017500010BD000000E100E01CED00E010B5044603
:101760000448046001E0FFF709F902480068002816
:10177000F9D110BD0000002010B500F047FB20217A
:101780000348FFF76FF82021024800F037FB10BD37
:10179000000C00400008004008B5012168460170B7
:1017A00041700221C17001218170694601208007CA
:1017B000FFF75CF803210020FFF710F80221032057
:1017C000FFF7BEF91121684601700121417008211F
:1017D000C170694601208007FFF748F8112168466B
:1017E0000170012141701021C17069464648FFF720
:1017F0003DF8112168460170012141702021C1701E
:1018000069464148FFF732F820213F48FFF72AF8A0
:10181000112168460170012141702021C170694683
:101820003A48FFF723F81121684601700121417001
:101830000421C17069463448FFF718F81121684641
:101840000170012141700421C17069462E48FFF7E3
:101850000DF8112168460170012141700221C1700B
:1018600069462948FFF702F81121684601700121F5
:1018700041708021C17069462448FEF7F7FF1121AD
:1018800068460170012141700421C1706946012040
:101890008007FEF7EBFF11216846017001214170BE
:1018A0004021C17069461848FEF7E0FF00216846F4
:1018B00001700821C1700021817069461348FEF74C
:1018C000D5FF0021684601702021C1700021817080
:1018D00069460F48FEF7CAFF0021684601701021D3
:1018E000C1700021817069460848FEF7BFFF0021E2
:1018F000684601701021C17000218170694604485A
:10190000FEF7B4FF08BD0000000C004000080040D6
:101910000004004010B500200D49087700210C4854
:101920002030417081710121203881772130817010
:10193000401D8170002006490871888548718871B2
:10194000087000F063FA4021024800F057FA10BD19
:1019500038000020000C0040034A5063203211740C
:10196000024A106070470000380000203400002058
:1019700010B51F48007C00282FD01D482038406B30
:10198000002833D11A48007C401EC1B218480174A7
:101990000146087CC10F091849104900411A09D1B4
:1019A0000421080700F044FA124801681048203862
:1019B00041631BE00E49087CC10F0918491049001A
:1019C000411A012912D10421080700F017FA094829
:1019D000016807482038416308E005482038406B1B
:1019E000002803D10421080700F008FA10BD000008
:1019F0005800002034000020FFF7E8F806467D215B
:101A0000C900FEF7CFFB0446601E5F49884200D93B
:101A10000CE0601E5D4948610321081FFFF762FE6C
:101A200000205A4988610720086100BFE12080003A
:101A3000FFF794FEFEF7EEFF05462846FEF781FF0E
:101A4000FFF7AAFEFEF7C6FCFEF750FEFFF730F8E0
:101A5000FEF7BEFFFFF75EFF00214D4841772130C2
:101A60004170401D417001212638817721308170FD
:101A7000401D817000204649886083E0FFF778FFB1
:101A800044480078002810D000204249087000BF68
:101A900006E03F49498842003F4B9952411CC8B279
:101AA0000F28F6DB01203D490870FEF767FF384834
:101AB000C068642813D300213548C1604188384884
:101AC00002780078401C364B18705000324A115290
:101AD000184600780F2802D10020194608702C48BB
:101AE0000069282808D32A480079002804D1002159
:101AF00027480161FFF7EAFC25488069FF21913101
:101B0000884208D325480078002804D000212048C6
:101B10008161FFF7D3FB1E484069142832D30021AE
:101B20001B484161007900282CD0194840790028D1
:101B300028D100F07BF800F037F8FFF71DFE1448BD
:101B4000007F002809D1124820304078002804D1B5
:101B50000F4820308079002814D000200C490877E5
:101B600000210B4820304170817140210D4800F068
:101B700045F90421080700F05BF90121FF202D3011
:101B8000FFF7EAFE7AE70000FFFFFF0000E000E059
:101B90003800002004000020700000200500002014
:101BA00006000020000C00401B48808D002825D036
:101BB0001A480078002821D10220184908701648D8
:101BC000808D1749884203D101201349087712E01C
:101BD0001148808D1349884204D101210E482030DC
:101BE000417008E00C48808D0F49884203D10121E3
:101BF000094820308171002007498885074800780E
:101C0000002807D000200449888504480078401E39
:101C100002490870704700003800002007000020CB
:101C200021020000210800002104000010B5082155
:101C30006B48FEF75AFE002823D06A48407F0028F0
:101C40001FD168481C30007900281AD16548C17F2F
:101C5000C07F401CC2B26348C277807F81422ADDC8
:101C600001216048417701205E49087700215D48E5
:101C7000C17708215A48FEF738FE5A491C310871CD
:101C800019E05848407F002805D05648407F401E44
:101C9000C1B25448417708215148FEF726FE514908
:101CA0001C310979884206D008214D48FEF71DFEF7
:101CB0004C491C31087120214B48FEF716FE0028C4
:101CC00026D0484821304078002821D1454821308D
:101CD000007900281CD143482130C178C078401CCD
:101CE000C2B240482130C270807881422DDD01218E
:101CF0003C4821304170401E41700021401CC170A1
:101D000020213948FEF7F1FD3649213108711CE0E8
:101D1000344821304078002807D0324821304078BC
:101D2000401EC1B22F482130417020212E48FEF7BD
:101D3000DCFD2C4921310979884206D020212A482E
:101D4000FEF7D3FD27492131087110212448FEF701
:101D5000CCFD002826D0234826304078002821D109
:101D600020482630007900281CD11E482630C17832
:101D7000C078401CC2B21B482630C27080788142B5
:101D80002DDD0121174826304170801F817100210F
:101D9000801DC17010211248FEF7A7FD11492631A0
:101DA00008711CE00F4826304078002807D00D4805
:101DB00026304078401EC1B20A48263041701021BA
:101DC0000748FEF792FD074926310979884206D077
:101DD00010210348FEF789FD02492631087110BD24
:101DE00000080040380000200004004070B50446A0
:101DF0000D4629462046FEF786FD70BD70B50446A7
:101E00000D4629462046FEF72DFD70BD10B5042174
:101E10000548FFF7F3FF02210348FFF7EFFF80219A
:101E20000248FFF7EBFF10BD000C00400008004027
:101E300070B504460D4629462046FEF760FD70BD8C
:101E4000601E0000000000203800000000010000BB
:101E5000981E000038000020300700001C01000020
:101E6000000000000000000028000000000000004A
:101E70000000000001000000000000000000000061
:101E80000000000000000000000000000000000052
:081E900000000000000000004A
:04000005000000BD3A
:00000001FF
