:020000040000FA
:10000000D006002061010000090D0000410C000035
:1000100000000000000000000000000000000000E0
:100020000000000000000000000000006D0F000054
:100030000000000000000000750D0000FD10000031
:10004000000000007901000079010000890700002C
:10005000C908000005090000790100000000000047
:10006000000000000000000079010000790100009C
:100070007901000079010000790100000000000012
:100080000000000079010000790100007901000002
:1000900000000000000000007901000019160000B7
:1000A0007901000079010000790100007901000068
:1000B00079010000790100007901000000F002F8E8
:1000C00000F03EF80CA030C8083824182D18671E20
:1000D000A246AB4654465D46AC4201D100F030F832
:1000E0007E460F3EB6460FCC0126334200D0FB1AA7
:1000F0003343A246AB461847A0290000C0290000A0
:10010000103A02D378C878C1FAD8520701D330C860
:1001100030C101D504680C60704700000023002442
:1001200000250026103A01D378C1FBD8520700D32E
:1001300030C100D50B6070471FB51FBD10B510BD95
:1001400000F038F81146FFF7F7FF01F0E9FD00F085
:1001500050F803B4FFF7F2FF03BC00F053F80000BF
:10016000094880F308880948804709480047FEE7A6
:10017000FEE7FEE7FEE7FEE7FEE70000054806496A
:10018000064A074B70470000D0060020011100000E
:10019000BD000000D0000020D0060020D0020020CA
:1001A000D002002070477047704700000048704739
:1001B000080000207546FFF7F9FFAE4605006946C6
:1001C0005346C008C000854618B020B5FFF7D6FFDB
:1001D00060BCB64600260027C0C5C0C5C0C5C0C5A6
:1001E000C0C5C0C5C0C5C0C5403D490849008D4611
:1001F000704710B50446C046C0462046FFF7A9FF29
:1002000010BD000001491820ABBEFEE72600020029
:100210007047B0B50025284600F000F900F0A8F8B6
:100220000320C401204600F01FF800F09BF800F006
:10023000FDF8204600F0D6F80028FAD0204600F05D
:1002400013F8681C092D0546F1D300F07FF800F083
:10025000AFF8404240B200F0E1F800F07DF82046EF
:1002600000F002F8B0BD0000FF21CA43C1431143B2
:10027000C005634803D4C2680A40C2607047026880
:100280000A4002607047C046F0B52B490B1F1A6840
:100290000124A2431A6002781C687025AC435207FF
:1002A000520EA2181A6084791D6802229543E40751
:1002B000A40F2C191C60037A0C680825AC43DB07DB
:1002C0001B0FE3180B6084780D6830239D43E4070F
:1002D000E40E2C190C608478A40040252C400E6894
:1002E000AE4334190C60858800242E46E640F6079C
:1002F00003D1641C092CF8D109240D6815430D6045
:100300000F2634400D46083D2F68B7433C192C603A
:10031000D2430C6814400C60C4790E681640E207A2
:10032000920FB2180A6029689943296040782968B9
:1003300001432960F0BDC04688440040012101729C
:10034000818000218170C180018070473A48016836
:1003500001229143016070472F48016801229143B7
:10036000016070473448016801220A430260704707
:100370002948016801220A430260704780B582B0B3
:1003800001A900220A708A70082805D0202805D00B
:10039000102809D1082002E0042000E0202001A953
:1003A000C870024800F00EFC02B080BD000C004096
:1003B0000F2108020A4A1346083B1B681B0707D493
:1003C000136852680A40F0301901014088187047DC
:1003D0005168126812020240C8B210187047C04635
:1003E00090440040C105064902D4C968014002E0BA
:1003F00009680840C1B2C8B2411E88417047C04672
:100400008044004004490A6804239A43C007400F0F
:10041000101808607047C046C04400403F210140AA
:10042000014801607047C046C4440040024801686A
:1004300001220A43026070478444004070B584B0D2
:10044000044600252846FFF7DDFF01AE3046FFF7E2
:1004500075FF0120B071B48075703046FFF714FF4E
:10046000FFF7D7FEFFF77EFFFFF7E0FF0320C40191
:100470002046FFF7B7FF0028FAD02046FFF7F4FE2A
:10048000FFF796FF04B070BDF0B581B04F4D2878EE
:10049000800705D54E48002101704E4801210170AA
:1004A0004C4C20784A4E317801430CD10120207009
:1004B000307049480321017001F030FB47480221A8
:1004C000017047480170464F3878052801D3042051
:1004D000387044480078317800290DD12278012AFB
:1004E0000AD121280FD022284DD1404800886988A0
:1004F00081422DD900222CE0212844D1002942D16B
:10050000002030703DE03448052101703878431CEC
:100510003B707D20C0006A880121002482420A4687
:1005200000D82246DBB2042B00D821460A43012A18
:1005300002D1042139706880002030700120254CE0
:100540002070397825480170274800F011FD1AE025
:10055000012239784B424B411343012B03D1002137
:100560003970688009E01C4804220270481E387007
:10057000C1B21FA000F0FCFC397800203070174891
:100580000170012020702878402101F003F92870C3
:10059000082101F0FFF828703078002810D1207869
:1005A00002280DD12046002404703C7001203070D8
:1005B0006C80204600F0B8FA614804807C717C7041
:1005C00000200849087001B0F0BDC0468C00002032
:1005D000900000206D000020C8000020980000203E
:1005E0009200002078000020752A00004C2A0000AC
:1005F00020446F776E2050535F7374657000000065
:10060000F0B581B04A4D6979012943D14C4E31880A
:100610004CA000F0ADFC4E480088318881424BD997
:10062000444F00247C80204601F0CEF93878022522
:10063000294601F0ADF83870402101F0A9F8387072
:100640004848047048480470394844713480447004
:1006500003460126B0070168F7220A4002607C8049
:100660001C703878294601F093F8387001F09EFA32
:100670003878314601F08EF8387037480460798850
:100680003AA000F075FC324801883BA000F070FCF5
:1006900001B0F0BD274C207801F07AF82070C00737
:1006A00025480278254801683CD0002A3AD120220A
:1006B0001143016001B0F0BD264827490A68274B65
:1006C0009A420CD30278012A09D100220A600270F2
:1006D000234B1A80194A136820241C4314600A68AB
:1006E0005208A72A21D30278002A1ED100220A60CC
:1006F00012490A68202353400B60194A13886C780A
:10070000032C01D8A34203D26400641E9C4205DC82
:10071000012404700868DF2404400C60581C108019
:1007200001B0F0BDDF221140016001B0F0BDC04654
:10073000920000208C00002086000020000800406D
:1007400084000020736875742074696D6500000072
:100750007E000020AD00002074000020D1070000C2
:10076000AE0000206D0000209000002066616E2E1B
:10077000537065656400000054696D6572566C6164
:1007800075654D696C697300F0B583B04348417875
:10079000C907434921D14278D20710D100220A600B
:1007A000444909230B703F490A7041490A70C280CD
:1007B000828042800270417801220A434270002404
:1007C000204600F0A7F83E480178012903D13D49B1
:1007D00001220A70047003B0F0BD0B68C4880022C7
:1007E0000A60C280E518ED235C002E4B1F78012FB4
:1007F00043D12D4EAF19BFB2A7421CD22B4E366843
:10080000B60705D42A4E3678002E04D1022603E01E
:10081000A7420CD30FE004260196865B0296254E74
:1008200037780126BE40029F3E43019FC653214EAA
:1008300037787F1E3770204EAE19B6B21F4FBE42BA
:1008400007D81C4E0B273770194E012737701746F3
:1008500012E0184F3E78002E0FD1154E3678002E3C
:100860000BD01A70124E327009263E70467804275B
:10087000374347708688770887801E78012E8AD094
:10088000094EAD19ADB2A54285D2084C2468A40723
:1008900081D5074C227001221A707CE7B800002035
:1008A00018400040C0000020CCFB000004000040C5
:1008B000AC00002000000020FF82FFFF9E0F000020
:1008C000B0000020C400002080B50A48102100F0CC
:1008D000B2F9002806D008480121017007480170CC
:1008E00007480170642001F055F8012000F012F86B
:1008F00080BDC046000400406C0000207200002053
:100900009100002080B500F071FF022000F002F895
:1009100080BD000001218140014801607047C04650
:1009200008180040062838D8800001A210588746D1
:100930004D0900005D0900006B0900007909000005
:100940009B0900009B0900008B0900000320014067
:10095000124A136883435818106070470F480268A2
:100960000C239A438907090F0CE00C4802683023D6
:100970009A438907890E05E008480268C0239A4314
:100980008907090E51180160704704484268042322
:100990009A43C907490F5118416070470018004039
:1009A00070B50146584A214C26463546131F186833
:1009B000460707D4C60609D4461E70427041012876
:1009C00007D009E00220012803D005E00320012818
:1009D00002D16E1C002DE8D1002D00D1042000288A
:1009E00000D070BD10680225284310605160106867
:1009F00040210143116021461C686007284604D449
:100A0000E00605D4641E60426041012803D005E081
:100A10000320012802D14C1C0029ECD113680224C8
:100A2000A34313600029DCD1042070BD0100F5FF51
:100A30003548016880220A4302607047F0B581B0F2
:100A4000314B324D2F463E461C1F2268570707D4B4
:100A5000D70609D4571E7A427A41012A07D009E005
:100A60000222012A03D005E00322012A02D1771CC9
:100A7000002EE8D1002E00D10422002A40D11A68AD
:100A80000126009632431A6001802F463E462268B6
:100A9000570707D4D70609D4571E7A427A41012A4C
:100AA00007D009E00222012A03D005E00322012A2F
:100AB00002D1771C002EE9D1002E00D10422002A99
:100AC0001AD1090C4180284621684A0707D4CA0672
:100AD00009D4491E4A424A41012A07D009E00222AC
:100AE000012A03D005E00322012A02D1451C002877
:100AF000E9D1002800D104221868009988431860C1
:100B0000104601B0F0BDC0461010014001E0FFFFEB
:100B10000248034901600349016070470410014025
:100B200023016745AB89EFCDF0B581B0204800784F
:100B300000282FD1B34E307881062BD5202100F02C
:100B400027FE307069460820C870FF2012300880E8
:100B500001208407204600F035F8002575802846DE
:100B600000F032FF13480570357013480570A74F29
:100B70007D71124805807D700420294600F002FD39
:100B80002068F721014021600A48057035703D70EA
:100B900000F0EAFC9B48007860210140402905D123
:100BA0000024204600F010FF0548048001B0F0BD8D
:100BB0009E0000206D000020900000208400002096
:100BC000C2000020F0B584B0C4680369009080685A
:100BD0000390C87802900026019103E03C43761C04
:100BE000082E21D001200746B740029A1742F6D0BE
:100BF0000D78102219462A4002D0039B3B4301E0A6
:100C0000039BBB4303930B46002A00D102200199AA
:100C1000085C002803D03B43E807DFD102E0BB4378
:100C2000E807DBD1BC43DAE70098C46003610399AD
:100C3000816004B0F0BD40680840411E88417047A3
:100C4000704700000548CC210160704703485521DA
:100C5000016070470148AA210160704700200040F0
:100C6000014908607047C0460420004001490860FF
:100C70007047C04608200040F0B583B000F0DAF8B5
:100C8000009000F07DFD01A9012008711C48019031
:100C90001C4D284600F0F4FA284600F0BCFB022167
:100CA000284600F0D8FB0028F9D00121284600F0A2
:100CB000B7FB06460221284600F0D2FA0221284658
:100CC00000F0C9FB0028F9D001272846394600F07A
:100CD000A7FB04460221284600F0C2FA28463946FE
:100CE00000F079FB284600F071FBA41B00F042FDE8
:100CF0000098C000214601F0A9FD03B0F0BDC04638
:100D000001000301003800407047000010B50028C2
:100D100005D40322034693430E4A9A1803E00C229B
:100D200002400B4BD2188307DB0E8907090E99404E
:100D3000FF249C401368A3430B431360002805D491
:100D40001F210840012181400348016010BDC046B9
:100D500014ED00E000E400E000E100E00448016878
:100D600004220A430260BFF34F8F30BF7047C04672
:100D700010ED00E07047000010B52148002101701F
:100D8000204C20780921084238D00A2108420DD190
:100D9000022100F0FFFC20701B480121017000F0CF
:100DA000BDFE2078402100F0F5FC20701748017846
:100DB0004A1ED1B2032911D813490B78012B00D157
:100DC00002700278042A01D1521C027002220A70B9
:100DD0000F490A78052A01D304220A7001780529EF
:100DE00004D3012101700848017010BD491C084A54
:100DF00011700170C9B207A000F0BAF810BDC0466A
:100E0000780000208C000020C80000209200002004
:100E100098000020656C7365206B65792E50535FD8
:100E200073746570200000002F490A6802430A604D
:100E30007047C046B0B5104D28460C380068C0B2A7
:100E4000B42811D0D22811D0E12812D12868C006C8
:100E5000800F0B4CC4400321204601F0F7FC2968A9
:100E6000890607D52046B0BD0448B0BD7D2080026C
:100E7000B0BD0020B0BDC046180001400024F40001
:100E8000006CDC02C10509D481050CD441050FD4E6
:100E9000010512D4C10415D4002017E00D490968DA
:100EA0000140C8B212E00B4949680140C8B20DE0E8
:100EB000084949690140C8B208E00649096A014089
:100EC000C8B203E00349496A0140C8B2411E8841E3
:100ED0007047C04600000140034909680140091AF3
:100EE000484248417047C04638000140F0B581B0E3
:100EF0006E46012434700A48708000250327284676
:100F00003946FFF70FFDA0073146FFF75BFE384675
:100F10002146FFF7FBFE0348457001B0F0BDC04617
:100F200001020000B800002080B50220FFF7D4FFC6
:100F300001281AD1032001F051FB012806D101201C
:100F4000014601F053FC0320002109E0012001F0DB
:100F500045FB012802D10120002101E001200146CA
:100F600001F044FC0220FFF75FFF80BD70470000E6
:100F7000F0B583B00D46064600785F4C00280FD0D0
:100F80000027C1B2204600F0EEFB8021204600F091
:100F9000D6FB0028F9D07F1CF8B2305C0028F0D1D5
:100FA0002021204600F0DFFB8021204600F0C7FB17
:100FB0000028F9D001A8002707710197002D0ED055
:100FC00000270A262846314601F040FC4643A91B6B
:100FD000BAB201AB99547F1C0A2D0546F1D23804F0
:100FE00011D0BDB26D1E01A8405D3030C1B22046A7
:100FF00000F0B9FB8021204600F0A1FB0028F9D0C9
:101000007F1E3804EED10A21204600F0ACFB80217F
:10101000204600F094FB0028F9D003B0F0BDC04694
:1010200010B584B0694600228A738A810C230B7143
:1010300002920090304C204600F00EFB204600F05B
:1010400079FB04B010BDC04610B52B4C0A212046D8
:1010500000F089FB8021204600F071FB0028F9D0C8
:1010600010BDC04670B582B00446684600260671C1
:101070000096002C0ED000260A252046294601F0B5
:10108000E5FB4543611BB2B26B469954761C0A2CB2
:101090000446F1D2300414D0B5B2174C6846281873
:1010A000401E00783030C1B2204600F05CFB802149
:1010B000204600F044FB0028F9D06D1E761E300457
:1010C000ECD102B070BDC04670B50446007800286F
:1010D00010D00026084DC1B2284600F044FB802104
:1010E000284600F02CFB0028F9D0761CF0B2205CDA
:1010F0000028F0D170BDC0460034004070470000A9
:10110000F0B583B04E4CCC202060552020600520E7
:1011100060606320A060AA2626604A4A10461838FC
:10112000012101601046143800230360101F036082
:1011300018201060FF205060106150629360D360EF
:10114000029341480299814203DA0299491C0291B3
:10115000F8E73E4F3846D168C9070BD02660401EDD
:10116000F9D1BFF34F8F3A483A490160BFF34F8F2F
:1011700000BFFDE70093D360812044003D46204638
:10118000FFF780FE00280CD12D4806606D1EF6D1B9
:10119000BFF34F8F2E482F490160BFF34F8F00BF21
:1011A000FDE7284D0098E860A8612046FFF76AFE39
:1011B00000280CD1224806607F1EF6D1BFF34F8F66
:1011C000234824490160BFF34F8F00BFFDE7284645
:1011D0000838E1210160009C01947D20C000019944
:1011E000814203DA0199491C0191F8E71A48FFF797
:1011F00049FE1749002807D0BFF34F8F15480860F4
:10120000BFF34F8F00BFFDE7144A1368102003435C
:1012100013600723DB43264614681C4014602A68C9
:10122000202414432C602A681A402A602A68082364
:10123000134383432B60081F066003B0F0BDC04614
:1012400000200040180001401027000041420F001C
:101250000CED00E00400FA05080800000010014051
:101260000A0A0B0606D0FF23DB43C943194343692F
:101270000B404361002A02D081699143816170472C
:10128000F0B5504A904204D10A784F4B1C68144381
:101290001C600A78D20722D0CC7803252C400A792A
:1012A0008B784E78076AAF433C190462046AF025D4
:1012B000AC4335072D0E64190462046A0C25AC4357
:1012C0009B071B0FE3180362036B0224A343D2079F
:1012D000920F9A180263026B0123134303630A7887
:1012E000920722D5CC7803252C400A798B784E784A
:1012F000476AAF433C194462446AF025AC43350762
:101300002D0E64194462446A0C25AC439B071B0FE5
:10131000E3184362036B2024A343D207920E9A186A
:101320000263026B1023134303630A78520722D52A
:10133000CC7803252C400A798B784E78876AAF43A6
:101340003C198462846AF025AC4335072D0E64197C
:101350008462846A0C25AC439B071B0FE3188362ED
:10136000436B0224A343D207920F9A184263426B45
:101370000123134343630A78120722D5CC7803254F
:101380002C400A798B784978C66AAE433419C46216
:10139000C46AF025AC430907090E6118C162C16A2D
:1013A0000C24A1439B071B0FC918C162416B20236A
:1013B0009943D207920E89184163416B10220A4368
:1013C0004263F0BD0010004084100040016801221B
:1013D000914301607047CA0706D18A070AD44A07B9
:1013E0000ED4090712D47047026B01239A4302639B
:1013F0008A07F4D5026B10239A4302634A07F0D59B
:10140000426B01239A4342630907ECD5416B1022DA
:10141000914341637047016801220A4302607047AB
:10142000CA0707D18A0709D449070BD4014670318E
:101430006C300AE001465831543006E00146603114
:101440005C3002E0014668316430006809680002DF
:10145000084380B2704710B50C0A00220B061346F1
:1014600002D043690B40DBB2002C01D082692240DC
:101470006240C8B2434013435842584110BD000077
:10148000B0B5C178C90730491CD042790B68022435
:10149000A343D207920F9A180A60027901231A40D7
:1014A0000C689C43A2180A6082780B460C3B1C68AF
:1014B0007025AC435207520EA2181A604278CA61D6
:1014C00002780A62C27892071DD542790B682024FF
:1014D000A343D207920E9A180A6002790B6810246F
:1014E000A343D207D20E9A180A6082780B46083BB3
:1014F0001C687025AC435207520EA2181A6042783D
:101500004A6202788A62C27852071BD542794B68D8
:101510000224A343D207920F9A184A60027901234A
:101520001A404C689C43A2184A6082780B1F1C68C2
:101530007025AC435207520EA2181A604278CA6254
:1015400000780863B0BDC046283C00400A0A054B3D
:101550005A62C9B299621862186801210143196080
:101560007047C046183C004005480168012291437D
:10157000016070470248016801220A430260704717
:10158000003C0040C2070C4A04D1830708D440073E
:101590000CD470470B0A1360CBB253608307F6D5A7
:1015A0000B0A9360CBB2D3604007F2D5080A1061F2
:1015B000C8B250617047C046443C004080B503202B
:1015C000FF2100F013F8012000F01EF800F014F8DD
:1015D00017200221FFF79AFB80BD000002490A682C
:1015E00082430A607047C04610400040014A516083
:1015F000106070471C4000400248016801220A4305
:10160000026070470040004002490A6802430A60D5
:101610007047C0460C40004080B50B48C18855312A
:10162000C1800A4801784A1C0270094B00211960E8
:10163000D2B20C2A04D3017006480188491C0180EB
:101640000120FFF7CBFF80BDB8000020C9000020BB
:1016500018400040A2000020F0B581B00D460446BD
:101660003248844205D00120E06231498C4200D1E9
:101670000863206916218843297BAA7B0A43024319
:101680002261A06930218843697B0143A1616069BF
:101690000C218843297901436161FFF7CBFB0A26BE
:1016A0007043296801F0D2F80746314601F0CEF8C0
:1016B0004643B91B042900D9401C0F2102460A40A9
:1016C000E3688B43D218E260020AF0231A40E6680E
:1016D0009E439219E2600009C0B2A268FF239A43B8
:1016E0001018A0602069FE22024022616069084053
:1016F0006061E069BF210140E161A868C1B20029D1
:1017000002D022690A4322610104090E04D06169F2
:10171000020AD2B20A4362610102090E04D0E169F1
:10172000000CC0B20843E06101B0F0BD00340040DD
:10173000004800400169202291430161704710B5C3
:101740000C0A00220B06134602D003680B40DBB2E2
:10175000002C01D0C26922406240C8B2434013430A
:101760005842584110BD4268FF239A4351184160C6
:1017700070470000054801680122914301607047ED
:101780000248016801220A430260704700240040B9
:10179000884370470843704770B582B001AC202081
:1017A000E0700026267079482146FFF70BFA0420E6
:1017B000E07077482146FFF705FA1020E070604D91
:1017C00028462146FFF7FEF90820E070284621460A
:1017D000FFF7F8F904486080267028462146FFF795
:1017E000F1F902B070BDC04601400000B0B5544CE4
:1017F00040212046FFF71FFA002816D0402120463E
:10180000FFF719FA00280DD000250F2000F0C2F8CC
:1018100040212046FFF70FFA002803D0681CBD2D99
:101820000546F2D3474801210170B0BDF0B581B043
:101830000446564D20212846FFF7FDF9002817D011
:1018400020212846FFF7F7F91E27002874D000262C
:10185000FFF700FA082000F09DF820212846FFF746
:10186000EAF9002868D0701CBD2E0646F0D363E06C
:10187000474D04212846FFF7DEF9002817D0042140
:101880002846FFF7D8F91B27002855D00026FFF778
:10189000E1F9082000F07EF804212846FFF7CBF993
:1018A000002849D0701CBD2E0646F0D344E0F64D0A
:1018B00010212846FFF7BFF9002817D0102128462D
:1018C000FFF7B9F92127002836D00026FFF7C2F923
:1018D000082000F05FF810212846FFF7ACF9002837
:1018E0002AD0701CBD2E0646F0D325E008212846DC
:1018F000FFF7A1F900281AD008212846FFF79BF925
:101900002227002818D000940024FFF7A3F9082606
:10191000304600F03FF828463146FFF78CF90028A2
:1019200003D0601CBD2C0446EFD3009C04E00548A6
:101930000078012801D00027277001B0F0BDC04613
:10194000000800406E000020B0B582B001AC0E4827
:10195000608000202070012528462946FEF7E2FF1E
:101960000A482146FFF72EF904202946FFF7CEF951
:101970004020E070FF2012302080C2482146FFF74F
:1019800021F902B0B0BDC0460110000000040040C3
:10199000000C004070B5002811D00446084D094ED7
:1019A00001E0641E0BD0FFF745FAA842F9D329469F
:1019B00000F04CFF704300BF401CFCD3F1E770BD4A
:1019C00000366E01A0F6FFFFB0B5464C2078012826
:1019D00008D145490A7891214900002A00D13231C5
:1019E000424A5180424D022818D12878012815D149
:1019F000002028703C480078002801D03E4900E0D3
:101A00003C493E4A12785200895A384A518000288F
:101A100001D03C4800E03A48FFF7AAFA20780328B2
:101A200007D131490A783849002A00D137312F4A85
:101A30005180042818D12878012815D10020287059
:101A400029480078002801D02B4900E029492B4A79
:101A500012785200895A254A5180002801D029481D
:101A600000E02748FFF784FA2078052818D1287865
:101A7000012815D1002028701B480078002801D0CB
:101A80001D4900E01B491D4A12785200895A174A25
:101A90005180002801D01B4800E01948FFF768FA80
:101AA000124842887D20C400A242214613D89120CA
:101AB000450029463131531E9BB28B4211460AD252
:101AC00009490978002904D0410010A0FFF750FA15
:101AD00000E032352946601C814202D20420FFF723
:101AE00051FDB0BDC80000207B0000208C0000200C
:101AF0006C0000204C2A0000422A000098000020C0
:101B0000562A0000662A00003F020000436F6E74F0
:101B1000696E656F75735F5F5F5F000080B582B04F
:101B20000948008866280DD37D20C1000020FFF7FA
:101B30000DFD68460121818004490091FFF7A0FC5A
:101B4000FFF718FD02B080BD700000200000060401
:101B5000F0B581B069460820C870FF2012300880B7
:101B6000012084072046FFF72DF81E4E00257580C2
:101B70002846FFF729FF1C48057035701B48057083
:101B8000624F7D711A4805807D7004202946FFF759
:101B9000F9FC2068F7210140216013480570357079
:101BA0003D70FFF7E1FC01B0F0BDC046B0B50D4D92
:101BB00000246C802046FFF707FF0B4804702C7050
:101BC0000A4804705148447109490C80447004204B
:101BD0002146FFF7D7FC012080070168F7220A4061
:101BE0000260B0BD8C0000206D000020900000203D
:101BF0008400002080B50F20C002FEF7D1FE80BD1A
:101C0000B0B5114C21780F2909D81020FEF716FC29
:101C10000E490A68101808602078401C10E00B4D2F
:101C2000286800F013FE9B2149004843084900F052
:101C30000DFE08490880002028600A88521C0A808E
:101C4000207004480088B0BD8A0000206800002091
:101C5000FF0F000080000020B0B582B001AC102062
:101C6000E070FF251235258006482146FEF7AAFFC1
:101C70002020E070258022482146FEF7A3FF02B015
:101C8000B0BDC046000C00400008004070B54B20BD
:101C9000C001FFF7C5F91020FEF770FBFFF77CFDD0
:101CA000FFF7DAFF16480168DF220A400260FFF7FB
:101CB0004FFFFFF71BF9FFF781FCFFF745FE114DC2
:101CC00000242C80FFF79CFF0B280AD8264600F042
:101CD000BDFCFFF795FF0B2803D8701C952E064618
:101CE000F5D32C80084804700848447008480470F4
:101CF00008480470084804800848048070BDC04645
:101D000000080040820000207C000020920000209B
:101D10007800002091000020C6000020C2000020B2
:101D200086B0E848CC210160552101600521416061
:101D300063218160AA210160FFF7A8FFFFF75AFF26
:101D40000027384600F04AFC0B2803D30020014648
:101D500000F04CFD384600F041FCDB4E3070DB48B3
:101D60000770DB4801240470DA490868DF22049216
:101D700010400860D8490868BF22019210400860EE
:101D8000D64807700868EF22029210400860FFF7FB
:101D90000DFFFFF7C9F80394204600F01FFC002850
:101DA0002CD00125284600F019FC012849D1012535
:101DB0002846394600F01AFDC9480770284600F049
:101DC0000DFC0146C7A0FFF7D3F8CB4C207829467D
:101DD000FFF7DEFC2070FFF7E9FEC8488770077048
:101DE000C7480770C7480770BB490868029A104087
:101DF0000860C5480780C548078040E0B8481F21F3
:101E0000017001252846294600F0F0FC284600F024
:101E1000E5FB0146BEA0FFF7ABF8B74C207829469A
:101E2000FFF7B8FC20700026304600F0D7FBA6492B
:101E30000870BC480570BC480670BC480670A24ECD
:101E40001DE0A7481F2101702846294600F0CEFC5E
:101E5000284600F0C3FB0146B5A0FFF789F8A64C61
:101E600020782946FFF796FC2070384600F0B6FB34
:101E70003070AC480570AC480770AC480770984D9E
:101E8000B14C059717E00121B048FFF771F89E4863
:101E900007809E48078090490868019A10400860B2
:101EA0000220FFF777FD00F003FC25463446864EFE
:101EB000FEF7D0FE059F85480078012815D1FFF771
:101EC0007DFBFEF7D9FE0646FEF7BCFEFEF7BEFE22
:101ED0000620FEF7C5FE700A7B4EC0B2FEF7C6FEB6
:101EE000FEF7B8FE002079490870FEF7B3FEFFF751
:101EF00087FE974908809F2804D33178012901D1B2
:101F00006E2005E0972805D33078002802D178208C
:101F10008F4908808E4801888EA0FFF729F828464F
:101F2000FFF784FC2878002803D18D48294600F06B
:101F300063FB287800285FD08AA0FFF7C5F82878CF
:101F4000FFF790F8FFF780F88148018888A0FFF735
:101F50000FF86D4807802878222825D13746264675
:101F600066480078002803D16F490878401C087043
:101F70006D4C21788048FEF7FBFF21787FA0FEF7AB
:101F8000F7FF2078022806D0012834463E46059FF8
:101F900007D1012003E0002034463E46059F7C49DE
:101FA0000870002061490870287821281AD1534C04
:101FB000217878A0FEF7DCFF2078042803D15B4964
:101FC0000878401C087059480078012839465E4A54
:101FD00002D0002802D103996D48017001205249B6
:101FE000087014460220C04329782339814202D860
:101FF000039867490870278040484179012903D137
:1020000000202080624A10702088614A1278012ADC
:1020100008D1012806D82F4A1168049B1940116085
:10202000411C10E0344A1278D2070DD001290BD0A0
:102030000021574A1170274C226820231343236044
:10204000414C022800D3218028781F2807D1002086
:10205000354908700121334A11703449087000274E
:10206000384600F0BBFA30701C480078012800D0D8
:10207000B5E0314628462546064600781F281E4A08
:1020800000D08DE01078C00700D089E0FFF7FEFD9A
:10209000FEF7F2FD0446FEF7D5FDFEF7D7FD06205C
:1020A000FEF7DEFD600AC0B2FEF7E0FDFEF7D2FDEE
:1020B000114800780121FFF76DFB0F4908702C468D
:1020C000354689E0002000409E000020C40000202A
:1020D000B000002000080040000C004091000020EB
:1020E00078000020506F7765725F6F6E6F66665F75
:1020F000325F6669727374008C00002092000020C9
:102100006D00002090000020C2000020C6000020CA
:10211000506F7765725F6F6E6F66665F315F66697D
:1021200072737400790000208B000020CA00002028
:1021300046506F7765725F6F6E6F66665F335F667E
:10214000697273740000000088000020812A00007A
:1021500070000020426174566F6C74310000000002
:102160007A00002052656D6F7465204B65793A00E6
:10217000426174566F6C7400752A0000646F776E4C
:102180005F62745F626C696E6B5F6C6F636B0000A3
:1021900086000020555020627574746F6E00000038
:1021A0001078C0072C4635460E4618D1E348007813
:1021B000012814D1FFF76AFDFEF75EFD0646FEF723
:1021C00041FDFEF743FD0620FEF74AFD700AC0B24E
:1021D000FEF74CFDFEF73EFDCD480770C94ED748CF
:1021E0000078012805D01021D248FEF724FD0028F0
:1021F0000AD03078012803D10020014600F0F6FA19
:102200008220CD490880377000F020FA0027384638
:1022100000F0BCF9FEF71EFD3078002800D0AEE0DB
:1022200028781D2821D01E2826D01F2864D12546B5
:10223000B94C20780921084237D00121FFF7A8FACC
:102240002070FFF7B3FCB64887700770B548077079
:10225000B5480770AD490868029A10400860B34855
:102260000780B34807803E4624E00120BB49087040
:10227000FEF782FD28463DE0A74800780A21084283
:10228000A74B22D00020AE49086001215971AD4909
:1022900008809D490968049A11409B4A1160287082
:1022A000587802280FD340000EE001263146FFF790
:1022B00071FA20702C46974D0120314600F096FAB5
:1022C0002846904E16E0401C58705878411ECAB2FD
:1022D000072A09D88B23D340DA0705D049B2490031
:1022E00099A2515A9C4A1180092805D300208C4993
:1022F0004870481D002101702878222826D0212806
:102300002AD01B282CD1844909780922114219D0DE
:102310008548007800282CD100202870804B9978BF
:102320004A424A419A70002903D13178002900D1EC
:10233000E1E0764A1168029B194011607B490880F0
:1023400001200EE0212807D0222809D172490978FE
:10235000C90709D1212803D16F480078C00703D1EC
:1023600000207149087004E001207C490870FEF7E4
:102370008BF8FEF745F968484088FEF7D5FBFEF775
:1023800069FC6D480088652806D83078002803D19C
:1023900073480088022806D8307801282BD170486D
:1023A0000088032827D32546307800280DD1012145
:1023B00031700026304600F019FA3046514E00F0D8
:1023C0000DF9014667A0FEF7D3FDFFF7EFFB4F497C
:1023D0000868029A104008605148877047714E4C57
:1023E00020782021FFF7D6F920705D48078000F0A3
:1023F0005FF92C46474D50480088782808D331783B
:10240000012905D137703846394600F0EFF903E06D
:10241000772801D35248078048480078012805D022
:1024200010214448FEF707FC002845D0374A1068C1
:1024300040210143116001204F4908703B4807804B
:102440003B48078010213B48FEF7F5FB002800D0F1
:102450002EE526462C463948077047480770334D0D
:1024600029884648FEF784FD3D48018844A0FEF7D0
:102470007FFD28880B2804D327480078C00700D1A7
:1024800001E527488078002808D123480078000714
:1024900004D426480088102800D3F4E42648008895
:1024A000782825463446174E00D201E517490868BA
:1024B000019A10400860FBE41F4800886B2802D393
:1024C000317801290FD11548007829490988294A0E
:1024D0009142B7D30128B5D10C4A10684021414040
:1024E00011602348ADE76B28ACD308490868019A0E
:1024F00010400860A6E7054A1068102101431160EA
:1025000001202EE79E00002000080040000C004043
:1025100091000020780000208C000020790000202D
:10252000920000206D00002090000020C2000020DA
:10253000C60000200004004070000020720000204F
:1025400074000020840000200807201C0807403881
:1025500008070807080780707E0000206C00002034
:1025600082000020616674657220736176650000E8
:102570009C000020E90300007B0000208B2A000063
:10258000626174746572795F73656300B0B50F49F9
:102590000A88424B1B889A1AD2B2002A14D00B80A8
:1025A0000B490B68541CE2180A600A4A1368E318C6
:1025B0001360094B1D8864191C80012802D0022871
:1025C00002D10A4600201060B0BDC046A000002025
:1025D000A4000020740000209C000020042802D9E0
:1025E0000020C04370470F21C90280004218964B5B
:1025F0001A6040587047C04610B5124A53785B07BE
:1026000018D5538894885C40A404240E02D000207E
:1026100008700CE09B09037093781F2003400B7037
:102620001F2B04D19388834340018342EFD00020C5
:1026300010605060D0880449884202D300201060A6
:10264000506010BDB8000020419C00001248028874
:1026500012490988914208D9891A8BB27B21C90095
:102660008B4217D98918491C03E00D4BD2188A42B6
:1026700010DC544A13885B1C13800A4A13885B1CC5
:102680001380018008480188491C0180074801889F
:10269000491C01807047C0469A000020A20000201B
:1026A000E803FFFF82000020C6000020C2000020D7
:1026B00070B53A480025057039480124047039483E
:1026C000047039480168DF220A4002603748016817
:1026D000BF220A40026036490D700168EF220A40AD
:1026E0000260344E75802846FFF76EF93248057057
:1026F0003570324805703248457132490D80457059
:1027000004202946FEF73EFFA0070168F7220A4091
:1027100002606420FFF73EF92046294600F066F883
:1027200029481021FEF787FA002804D027A00121AC
:10273000FEF71EFC70BD28A02146FEF719FC2046BE
:10274000FEF7E8F80020FEF7E5F802252846FEF738
:10275000E1F8FEF77FFA0320214600F047F8204613
:10276000FEF73CFFE00520490860BFF34F8FBFF341
:102770006F8F32263046FFF70DF904202146FEF711
:10278000C5FA2846FEF750FB2046FEF74DFB3046C3
:10279000FFF700F9FEF7E2FA70BDC046C400002062
:1027A0007C000020B000002000080040000C004029
:1027B000910000208C0000206D000020900000207F
:1027C000920000208400002000040040506F7765D4
:1027D00072204F6E00000000536C656570204D6FD5
:1027E0006465204F6E00000080E100E0F0B587B026
:1027F000042826D80F22D402019102A90B462546AF
:10280000C0CDC0C3C4CDC4C38000019A0A502046C5
:1028100010300D490860FEF77BF92046FEF7C0F83E
:102820001320C54301E02D1D09D002A840194169BC
:10283000481CF8D028191430FEF700F9F3E7FEF72A
:10284000F7F807B0F0BDC046A800002043088B424F
:102850001AD3002203098B4279D3030A8B425ED339
:10286000030B8B4242D3030C8B4227D30902FF2276
:1028700012BA030C8B4202D31212090203D0030BCB
:102880008B4233D31AE0D3E0411A8041401C704799
:1028900003460B4371D443088B42F5D3002203094E
:1028A0008B4254D3030A8B4239D3030B8B421DD383
:1028B000030C8B4202D394466EE0090AC30B8B4291
:1028C00001D3CB03C01A5241830B8B4201D38B033C
:1028D000C01A5241430B8B4201D34B03C01A5241E1
:1028E000030B8B4201D30B03C01A5241C30A8B4224
:1028F00001D3CB02C01A5241830A8B4201D38B020F
:10290000C01A5241430A8B4201D34B02C01A5241B2
:10291000030A8B4201D30B02C01A5241CDD2C30924
:102920008B4201D3CB01C01A524183098B4201D3A0
:102930008B01C01A524143098B4201D34B01C01A8B
:10294000524103098B4201D30B01C01A5241C30803
:102950008B4201D3CB00C01A524183088B4201D372
:102960008B00C01A524143088B4201D34B00C01A5E
:102970005241411A524110007047CA0F00D04942DB
:10298000031000D34042534000229C4603098B426F
:102990002DD3030A8B4212D38901FC2212BA030AF7
:1029A0008B420CD3890192118B4208D38901921179
:1029B0008B4204D3890137D0921100E08909C30901
:1029C0008B4201D3CB01C01A524183098B4201D300
:1029D0008B01C01A524143098B4201D34B01C01AEB
:1029E000524103098B4201D30B01C01A5241C30863
:1029F0008B4201D3CB00C01A524183088B4201D3D2
:102A00008B00C01A5241D9D243088B4201D34B00EC
:102A1000C01A5241411A00D2014652411046634643
:102A20005B1000D34042704763465B1000D34042C6
:102A300001B50021004201D0C9430846C046C04646
:102A400002BD2201AE013F02E402E8035401EA01A3
:102A50007602F802E803427574746F6E2055702098
:102A6000537065656400534D50535F66616E2E531D
:102A700070656564006B65792E50535F7374657083
:102A800000526573657420796573004C5654536821
:102A9000757444656C617900B82A0000000000205C
:102AA0000800000000010000C02A0000080000200B
:102AB000C80600001C010000090000000000000022
:04000005000000BD3A
:00000001FF
