:020000040000FA
:1000000000040020D1000000AD040000AB0400009B
:1000100000000000000000000000000000000000E0
:10002000000000000000000000000000FD040000CF
:100030000000000000000000AF040000D90500002F
:1000400000000000E9000000E9000000E9000000F5
:10005000E9000000E9000000E900000000000000E5
:100060000000000000000000E9000000E9000000BE
:10007000E9000000E9000000E900000000000000C5
:1000800000000000E9000000E9000000E9000000B5
:1000900000000000000000004D030000E900000027
:1000A000E9000000E9000000E9000000E9000000AC
:1000B000E9000000E9000000E9000000034885466F
:1000C00000F03AF8004800477107000000040020E3
:1000D000064880F308880648804706480047FEE740
:1000E000FEE7FEE7FEE7FEE7FEE700000004002073
:1000F000DD050000BD00000070B50446002903D0F6
:1001000000202022012310E0002801D00020C0435D
:10011000C046C0460DE02546D5408D4205D30D466C
:100120009540641B1D46954040191546521E002DF2
:10013000F1DC214670BD0000064C0125064E05E0AD
:10014000E36807CC2B430C3C98471034B442F7D3F8
:10015000FFF7B8FF0C0800001C080000B0B5002530
:10016000284600F02BF900F0EBF80320C4012046EC
:1001700000F062F800F0DEF800F028F9204600F008
:1001800001F90028FAD0204600F056F8681C092D25
:100190000546F1D300F0C2F800F0DAF8404240B270
:1001A00000F00CF900F0C0F8204600F045F8B0BDB2
:1001B000F0B581B00320C40100201A4D08E00020F2
:1001C00000F026F9012000F019F9701C092E27D241
:1001D0000646204600F0D6F80028FAD0204600F067
:1001E0002BF800F0B5F807460FA0394600F088F963
:1001F0002846C83078430F49FFF77EFF80B2A842F7
:10020000DDD84009182804D8012000F001F90020A9
:10021000D9E7002000F0FCF8012000F0F9F8D4E75D
:1002200001B0F0BD1C0C0000616463206461746166
:1002300000000000FF0F0000FF21CA43C14311432B
:10024000C005574803D4C2680A40C26070470268BC
:100250000A4002607047C046F0B52B490B1F1A6870
:100260000124A2431A6002781C687025AC4352072F
:10027000520EA2181A6084791D6802229543E40781
:10028000A40F2C191C60037A0C680825AC43DB070B
:100290001B0FE3180B6084780D6830239D43E4073F
:1002A000E40E2C190C608478A40040252C400E68C4
:1002B000AE4334190C60858800242E46E640F607CC
:1002C00003D1641C092CF8D109240D6815430D6075
:1002D0000F2634400D46083D2F68B7433C192C606B
:1002E000D2430C6814400C60C4790E681640E207D3
:1002F000920FB2180A6029689943296040782968EA
:1003000001432960F0BDC0468844004001210172CC
:10031000818000218170C180018070472E48016872
:1003200001229143016070472348016801229143F3
:10033000016070472848016801220A430260704743
:100340001D48016801220A4302607047704700009F
:100350000F2108020A4A1346083B1B681B0707D4F3
:10036000136852680A40F03019010140881870473C
:100370005168126812020240C8B210187047C04695
:1003800090440040C105064902D4C968014002E01A
:1003900009680840C1B2C8B2411E88417047C046D2
:1003A0008044004004490A6804239A43C007400F70
:1003B000101808607047C046C04400403F2101400B
:1003C000014801607047C046C444004002480168CB
:1003D00001220A43026070478444004080B582B025
:1003E00011210A0101A90A80C0000E4A13181B79C5
:1003F000CB70105800F01CF802B080BD80B5C10071
:10040000084A50585118097900F04BF880BDC04691
:1004100080B5C100034A50585118097900F004F81A
:1004200080BDC046FC07000002688A430260704736
:10043000F0B584B0C4680369009080680390C87800
:1004400002900026019103E03C43761C082E21D047
:1004500001200746B740029A1742F6D00D781022C5
:1004600019462A4002D0039B3B4301E0039BBB4358
:1004700003930B46002A00D102200199085C002852
:1004800003D03B43E807DFD102E0BB43E807DBD101
:10049000BC43DAE70098C46003610399816004B04B
:1004A000F0BD02680A4302607047704770477047AA
:1004B000B0B5654D28460C380068C0B2B42811D0DC
:1004C000D22811D0E12812D12868C006800F0A4C2A
:1004D000C44003212046FFF70FFE2968890607D58F
:1004E0002046B0BD0348B0BD7D208002B0BD0020D5
:1004F000B0BDC0460024F400006CDC027047000070
:10050000F0B583B00D4606460078874C00280FD022
:100510000027C1B2204600F024F98021204600F0D7
:100520000CF90028F9D07F1CF8B2305C0028F0D11B
:100530002021204600F015F98021204600F0FDF82A
:100540000028F9D001A8002707710197002D0ED0CF
:1005500000270A2628463146FFF7CEFD4643A91B51
:10056000BAB201AB99547F1C0A2D0546F1D238046A
:1005700011D0BDB26D1E01A8405D3030C1B2204621
:1005800000F0EFF88021204600F0D7F80028F9D0DD
:100590007F1E3804EED10A21204600F0E2F88021C7
:1005A000204600F0CAF80028F9D003B0F0BDC046DC
:1005B00010B584B0694600228A738A810C230B71BE
:1005C00002920090584C204600F044F8204600F07B
:1005D000AFF804B010BDC04670470000B0B51A486F
:1005E0000146183901220A600246143A00211160BE
:1005F0000246083AE1231360021F116018220260CC
:10060000FF224260026142628160C160C268D2071B
:10061000FCD1C16081610D4B1C68102214431C6029
:100620000724E4431D6825401D60036820251D4301
:100630000560036823400360036808241C43944357
:10064000046003480160B0BD180001400010014083
:1006500008ED00E0F0B581B00D4604463248844212
:1006600005D00120E06231498C4200D10863206945
:1006700016218843297BAA7B0A4302432261A06991
:1006800030218843697B0143A16160690C21884363
:10069000297901436161FFF70BFF0A26704329683E
:1006A000FFF72AFD07463146FFF726FD4643B91BF3
:1006B000042900D9401C0F2102460A40E3688B43FD
:1006C000D218E260020AF0231A40E6689E439219AB
:1006D000E2600009C0B2A268FF239A431018A0602C
:1006E0002069FE2202402261606908406061E06981
:1006F000BF210140E161A868C1B2002902D022698E
:100700000A4322610104090E04D06169020AD2B2CF
:100710000A4362610102090E04D0E169000CC0B213
:100720000843E06101B0F0BD0034004000480040E3
:100730000169202291430161704710B50C0A002223
:100740000B06134602D003680B40DBB2002C01D02D
:10075000C26922406240C8B24340134358425841E4
:1007600010BD4268FF239A43511841607047000052
:1007700084B04B20C001FFF71BFF00242046FFF789
:100780002DFE01252846FFF729FE2046FFF736FEFD
:100790002846FFF733FE104E03A90C70A8024880CC
:1007A0003046FFF745FE2046FFF7FCFD6F46384612
:1007B000FFF7ACFD3D720820B880BD717C703846F3
:1007C000FFF74AFDFFF7CAFCFFF7B4FDFFF7FEFD98
:1007D000FFF7EEFCE0E7C046000C004002E008C86E
:1007E000121F08C1002AFAD170477047002001E0AB
:1007F00001C1121F002AFBD1704700000008004011
:100800002000000000080040200000001C0800003C
:0C0810000000002000040000EC070000C5
:04000005000000BD3A
:00000001FF
