:020000040000FA
:10000000600600204501000059050000570500006A
:1000100000000000000000000000000000000000E0
:10002000000000000000000000000000FD050000CE
:100030000000000000000000AD050000D90600002F
:10004000000000005D0100005D0100005D01000096
:100050005D0100005D0100005D0100000000000086
:1000600000000000000000005D0100005D010000D4
:100070005D0100005D0100005D0100000000000066
:10008000000000005D0100005D0100005D01000056
:100090000000000000000000E50300005D0100001A
:1000A0005D0100005D0100005D0100005D010000D8
:1000B0005D0100005D0100005D01000000F002F83C
:1000C00000F030F80CA030C8083824182D18671E2E
:1000D000A246AB4654465D46AC4201D100F022F840
:1000E0007E460F3EB6460FCC0126334200D0FB1AA7
:1000F0003343A246AB461847EC090000FC09000058
:100100000023002400250026103A01D378C1FBD833
:10011000520700D330C100D50B6070471FB51FBD1B
:1001200010B510BD00F033F81146FFF7F7FF00F0EF
:100130009FFB00F04BF803B4FFF7F2FF03BC00F0A5
:1001400051F80000094880F30888094880470948A9
:100150000047FEE7FEE7FEE7FEE7FEE7FEE70000FA
:1001600005480649064A074B704700006006002014
:10017000DD060000BD0000006000002060060020D9
:10018000600200206002002070477047704775468B
:1001900000F024F8AE46050069465346C008C0008A
:1001A000854618B020B5FFF7DBFF60BCB6460026D9
:1001B0000027C0C5C0C5C0C5C0C5C0C5C0C5C0C575
:1001C000C0C5403D490849008D46704710B50446FA
:1001D000C046C0462046FFF7AEFF10BD004870473E
:1001E0000000002001491820ABBEFEE726000200F7
:1001F0007047B0B50025284600F036F900F0ECF85D
:100200000320C401204600F063F800F0DFF800F09E
:1002100033F9204600F00CF90028FAD0204600F00F
:1002200057F8681C092D0546F3D300F0C3F800F019
:10023000DDF8404240B200F017F900F0C1F8204666
:1002400000F046F8B0BD0000B0B5A02000F0E8F81E
:1002500001282AD1A02000F031F800F0C7F80446A8
:1002600012A0214600F0CCF9124D2846C830604358
:10027000114900F033FB80B2A84206D9002000F0FB
:100280001DF9012000F010F9B0BD4009182806D86A
:10029000012000F013F9002000F006F9B0BD0020A5
:1002A00000F00CF9012000F009F9B0BD426174566C
:1002B0006F6C74001C0C0000FF0F0000C021C943CC
:1002C000C043084361490A6802400A607047C0465B
:1002D000FF21CA43C1431143C0055C4803D4C2682F
:1002E0000A40C260704702680A4002607047C04618
:1002F000F0B52B490B1F1A680124A2431A6002783B
:100300001C687025AC435207520EA2181A608479FB
:100310001D6802229543E407A40F2C191C60037A80
:100320000C680825AC43DB071B0FE3180B608478CF
:100330000D6830239D43E407E40E2C190C6084788B
:10034000A40040252C400E68AE4334190C6085880B
:1003500000242E46E640F60703D1641C092CF8D190
:1003600009240D6815430D600F2634400D46083DE5
:100370002F68B7433C192C60D2430C6814400C60C2
:10038000C4790E681640E207920FB2180A60296815
:10039000994329604078296801432960F0BDC0462F
:1003A0008844004001210172818000218170C18058
:1003B0000180704733480168012291430160704712
:1003C0002848016801229143016070472D48016867
:1003D00001220A43026070472248016801220A4351
:1003E0000260704780B5FFF72FFF80BD0F21080224
:1003F0000A4A1346083B1B681B0707D41368526858
:100400000A40F0301901014088187047516812689D
:1004100012020240C8B210187047C0469044004013
:100420000A4909680140091A484248417047C046D4
:10043000C105064902D4C968014002E009680840C4
:10044000C1B2C8B2411E88417047C04680440040D6
:1004500004490A6804239A43C007400F1018086033
:100460007047C046C04400403F2101400148016040
:100470007047C046C44400400248016801220A4354
:10048000026070478444004080B582B011210A01A7
:1004900001A90A80C0000E4A13181B79CB701058AE
:1004A00000F01CF802B080BD80B5C100084A505869
:1004B0005118097900F04BF880BDC04680B5C100E5
:1004C000034A50585118097900F004F880BDC0461D
:1004D000D40A000002688A4302607047F0B584B015
:1004E000C4680369009080680390C8780290002671
:1004F000019103E03C43761C082E21D001200746E1
:10050000B740029A1742F6D00D78102219462A40B9
:1005100002D0039B3B4301E0039BBB4303930B4689
:10052000002A00D102200199085C002803D03B4337
:10053000E807DFD102E0BB43E807DBD1BC43DAE7E1
:100540000098C46003610399816004B0F0BD026843
:100550000A430260704770477047000010B50028DA
:1005600005D40322034693430E4A9A1803E00C2253
:1005700002400B4BD2188307DB0E8907090E994006
:10058000FF249C401368A3430B431360002805D449
:100590001F210840012181400348016010BDC04671
:1005A00014ED00E000E400E000E100E0704700002E
:1005B000B0B5654D28460C380068C0B2B42811D0DB
:1005C000D22811D0E12812D12868C006800F0A4C29
:1005D000C4400321204600F081F92968890607D527
:1005E0002046B0BD0348B0BD7D208002B0BD0020D4
:1005F000B0BDC0460024F400006CDC02704700006F
:10060000F0B583B00D4606460078874C00280FD021
:100610000027C1B2204600F024F98021204600F0D6
:100620000CF90028F9D07F1CF8B2305C0028F0D11A
:100630002021204600F015F98021204600F0FDF829
:100640000028F9D001A8002707710197002D0ED0CE
:1006500000270A262846314600F040F94643A91BE8
:10066000BAB201AB99547F1C0A2D0546F1D2380469
:1006700011D0BDB26D1E01A8405D3030C1B2204620
:1006800000F0EFF88021204600F0D7F80028F9D0DC
:100690007F1E3804EED10A21204600F0E2F88021C6
:1006A000204600F0CAF80028F9D003B0F0BDC046DB
:1006B00010B584B0694600228A738A810C230B71BD
:1006C00002920090584C204600F044F8204600F07A
:1006D000AFF804B010BDC04670470000B0B51A486E
:1006E0000146183901220A600246143A00211160BD
:1006F0000246083AE1231360021F116018220260CB
:10070000FF224260026142628160C160C268D2071A
:10071000FCD1C16081610D4B1C68102214431C6028
:100720000724E4431D6825401D60036820251D4300
:100730000560036823400360036808241C43944356
:10074000046003480160B0BD180001400010014082
:1007500008ED00E0F0B581B00D4604463248844211
:1007600005D00120E06231498C4200D10863206944
:1007700016218843297BAA7B0A4302432261A06990
:1007800030218843697B0143A16160690C21884362
:10079000297901436161FFF70BFF0A26704329683D
:1007A00000F09CF80746314600F098F84643B91B24
:1007B000042900D9401C0F2102460A40E3688B43FC
:1007C000D218E260020AF0231A40E6689E439219AA
:1007D000E2600009C0B2A268FF239A431018A0602B
:1007E0002069FE2202402261606908406061E06980
:1007F000BF210140E161A868C1B2002902D022698D
:100800000A4322610104090E04D06169020AD2B2CE
:100810000A4362610102090E04D0E169000CC0B212
:100820000843E06101B0F0BD0034004000480040E2
:100830000169202291430161704710B50C0A002222
:100840000B06134602D003680B40DBB2002C01D02C
:10085000C26922406240C8B24340134358425841E3
:1008600010BD4268FF239A43511841607047000051
:1008700084B04B20C001FFF71BFF00252846FFF77F
:1008800003FE01242046FFF7FFFD2846FFF70CFE7C
:100890002046FFF709FE69460D70A00248800E4809
:1008A000FFF71CFE2846FFF7D3FD01AD2846FFF7F2
:1008B00079FDAC710820A880202068702846FFF7D9
:1008C00017FDFFF796FC16202146FFF747FEFFF7BE
:1008D0007DFDFFF7D1FDFEE7000C004043088B4291
:1008E0001AD3002203098B4279D3030A8B425ED3C9
:1008F000030B8B4242D3030C8B4227D30902FF2206
:1009000012BA030C8B4202D31212090203D0030B5A
:100910008B4233D31AE0D3E0411A8041401C704728
:1009200003460B4371D443088B42F5D300220309DD
:100930008B4254D3030A8B4239D3030B8B421DD312
:10094000030C8B4202D394466EE0090AC30B8B4220
:1009500001D3CB03C01A5241830B8B4201D38B03CB
:10096000C01A5241430B8B4201D34B03C01A524170
:10097000030B8B4201D30B03C01A5241C30A8B42B3
:1009800001D3CB02C01A5241830A8B4201D38B029E
:10099000C01A5241430A8B4201D34B02C01A524142
:1009A000030A8B4201D30B02C01A5241CDD2C309B4
:1009B0008B4201D3CB01C01A524183098B4201D330
:1009C0008B01C01A524143098B4201D34B01C01A1B
:1009D000524103098B4201D30B01C01A5241C30893
:1009E0008B4201D3CB00C01A524183088B4201D302
:1009F0008B00C01A524143088B4201D34B00C01AEE
:100A00005241411A524110007047CA0F00D049426A
:100A1000031000D34042534000229C4603098B42FE
:100A20002DD3030A8B4212D38901FC2212BA030A86
:100A30008B420CD3890192118B4208D38901921108
:100A40008B4204D3890137D0921100E08909C30990
:100A50008B4201D3CB01C01A524183098B4201D38F
:100A60008B01C01A524143098B4201D34B01C01A7A
:100A7000524103098B4201D30B01C01A5241C308F2
:100A80008B4201D3CB00C01A524183088B4201D361
:100A90008B00C01A5241D9D243088B4201D34B007C
:100AA000C01A5241411A00D20146524110466346D3
:100AB0005B1000D34042704763465B1000D3404256
:100AC00001B50021004201D0C9430846C046C046D6
:100AD00002BD0000000800402000000000080040A7
:100AE00020000000F40A0000000000206006000062
:040AF0000001000001
:04000005000000BD3A
:00000001FF
